:040000006F00F0603D
:100004000000000000000000460A0000480A00004A
:10001400000000000C0E00000000000000000000C2
:100024000C0E00000C0E0000000000000000000098
:10003400EE1B0000000000000002000000000000B1
:100044000C0E00000C0E00000C0E00000C0E000044
:100054000C0E00000C0E00000C0E00000C0E000034
:100064000C0E00000C0E00000C0E00000C0E000024
:100074000C0E00000C0E00000C0E0000DA0900004B
:100084000C0E00000C0E00000C0E00000C0E000004
:100094000C0E00000C0E00000C0E00000C0E0000F4
:1000A4000C0E00000C0E00000C0E00000C0E0000E4
:1000B4000C0E00000C0E00000C0E00000C0E0000D4
:1000C4000C0E00000C0E00000C0E00000C0E0000C4
:1000D4000C0E0000480900000C0E00000C0E00007D
:1000E4000C0E00000C0E00000C0E00000C0E0000A4
:1000F4000C0E00000C0E00000C0E00000C0E000094
:10010400000000000C0E00000C0E00000C0E00009D
:100114000C0E00000C0E00000C0E00000C0E000073
:100124000C0E00000C0E00000C0E00000C0E000063
:100134000C0E00000C0E00000C0E00000C0E000053
:100144000C0E00000C0E00000C0E00000C0E000043
:100154000C0E00000C0E00000C0E00000C0E000033
:100164000C0E00000C0E00000C0E00000C0E000023
:100174000C0E00000C0E00000C0E00000C0E000013
:100184000C0E00000C0E00000C0E00000C0E000003
:100194000C0E00000C0E00000C0E00000C0E0000F3
:1001A400000000000000000000000000000000004B
:0C01B4000000000000000000000000003F
:10020000130181F806C216C41AC61EC822CA26CC1B
:100210002ACE2ED032D236D43AD63ED842DA46DC76
:100220004ADECEC0D2C2D6C4DAC6DEC8E2CAE6CC46
:10023000EACEEED0F2D2F6D4FAD6FED8F3220030CF
:1002400096DA9702002083A2A2E823A02200F325D9
:1002500010342EC09305000273A0458003A1818154
:10026000EF20C05917030020032383E60321030076
:10027000824273901234D652739002309240A2425E
:100280003243C2435244E244724582551256A2564A
:100290003257C2575258E25872598649164AA64AEE
:1002A000364BC64B564CE64C764D865D165EA65ECA
:1002B000365FC65F13018107730020301300000012
:1002C00013000000130000001300000013000000E2
:1002D00013000000130000001300000013000000D2
:1002E00013000000130000001300000013000000C2
:1002F00013000000130000001300000013000000B2
:1003000083A28181938202E073900234170100205E
:10031000032101DC024182403243C2435244E244A1
:10032000724582551256A2563257C2575258E25859
:1003300072598649164AA64A364BC64B564CE64C6D
:10034000764D865D165EA65E365FC65FD652A1020A
:1003500073900230A24213018107828013000000D3
:100360001300000013000000130000001300000041
:100370001300000013000000130000001300000031
:100380001300000013000000130000001300000021
:100390001300000013000000130000001300000011
:1003A0001300000013000000130000001300000001
:1003B00013000000130000001300000013000000F1
:1003C00013000000130000001300000013000000E1
:1003D00013000000130000001300000013000000D1
:1003E00013000000130000001300000013000000C1
:1003F00013000000130000001300000013000000B1
:10040000F322003093F272FF130380781203B3E2F9
:100410006200711523205500130585FA10C12115BE
:10042000232005009302000063870200711523203A
:100430000500FD12D5BF71150CC1828000000000BF
:1004400000000000000000000000000000000000AC
:10045000000000000000000000000000000000009C
:10046000000000000000000000000000000000008C
:10047000000000000000000000000000000000007C
:10048000000000000000000000000000000000006C
:10049000000000000000000000000000000000005C
:1004A000000000000000000000000000000000004C
:1004B000000000000000000000000000000000003C
:1004C000000000000000000000000000000000002C
:1004D000000000000000000000000000000000001C
:1004E000000000000000397101436EC619A0397187
:1004F00041536AC866CA62CC5ECE19A039710153F5
:100500005AD056D252D44ED64AD826DA22DC06DE4B
:1005100033016140828241114AC026C222C406C60C
:100520008282B24D4101024D924C224CB24B4101AC
:10053000024B924A224AB249410102499244224462
:10054000B240410182803D432A876373C30293779F
:10055000F700BDEFADE5937606FF3D8ABA960CC372
:100560004CC30CC74CC74107E36BD7FE11E2828036
:10057000B306C3408A069702000096966780A600DD
:100580002307B700A306B7002306B700A305B700EB
:100590002305B700A304B7002304B700A303B700E3
:1005A0002303B700A302B7002302B700A301B700DB
:1005B0002301B700A300B7002300B700828093F5A2
:1005C000F50F93968500D58D93960501D58D61B76E
:1005D000939627009702000096968682E78086FA17
:1005E0009680C1171D8F3E96E374C3F8A5B7EFF24E
:1005F000FFF05D712A8A2E89B289814513060002B7
:10060000081836C63AC402C802CA02CC2D3F854536
:10061000154502CE02D002D202D402D6EF10C0108D
:10062000854537050002EF100012854537451D004E
:10063000EF003063B7140140E1473ECC0C088D4712
:10064000138504800564E0803ECAEF00905593074F
:1006500080040C0813850480130404803ECCE080E1
:10066000EF0030542247B2463765004005440C186D
:10067000130505402309E1022318D102A2C2A309F0
:100680004103230A3103A30A210302DC02DE82C0F4
:1006900082C482C6EF00D00099679387072E3ECEB2
:1006A000B7070700811768083ED02304810222D6CD
:1006B00002D2EF00700D6161A5BDEFF23FE40111C0
:1006C000AE87130770317400C2073AC6230BB1001E
:1006D000231A01000147B685C18313160701418221
:1006E0008506636AF602B764004013850440EF0094
:1006F00090180569AA89014493840440054A7D192C
:10070000CE852685EF00F02263014503631B24019B
:100710000545056131BD3306E50010220507B0A689
:100720006DBF050442044180E1BF7D75050522953A
:1007300013351500F9BFEFF27FDC9387C19A03D719
:10074000474093070040AA8A998F3E84C207C1831D
:100750001389C19A63F3F5002E84835409409309E9
:1007600000404204C204C180B3899940C20941805B
:1007700093D9090163E88902035509402286D68589
:100780004A95EF20900183570940A297C207C18381
:100790002310F940835749403E944204418023127C
:1007A000894079B303550940938404C0A2944E86CE
:1007B000D685C2044A95EF20407EC1802686B38547
:1007C0003A011385C19AEF20407D23109940D9B793
:1007D000EFF27FD4AA84116579718545310502CA8B
:1007E00002CC02CE02D002D202D402D602C602C885
:1007F000EF00907393070020FC82371401408D476F
:100800003ECC4C08E147130504803ECEEF00703922
:1008100093070040FC824C089147130504803ECEAC
:1008200037440140EF00F037B7070C000C101305F8
:1008300004803ED426D002D223160102EF0090722B
:1008400005469305404213050480EF00F07B9307B3
:1008500050137C8685475C87680085473EC8EF005B
:10086000504E854513050480EF00B0784561F1B125
:10087000EFF27FCA39711306C00281454808E131A1
:10088000854505453704024002C602C8EF00F067FF
:1008900013058405EF00B010B74401408D673EDCBE
:1008A000938744803ECAB707002013070008938748
:1008B00097124C08130584053AD43AD03ECC02D2A4
:1008C00002D602D802DA02DE02CEEF00102405467C
:1008D000894513058405EF0010289307F0117C86E5
:1008E00085475C87680085473EC8EF009045130543
:1008F00084058545EF00F024054693050004138523
:100900000480EF00D07321610DB91387C19A83561B
:1009100027409387C19ABA96882283562740850636
:10092000C206C1822311D740035727409306F03FE8
:1009300063F4E6002391074003D747407D17420741
:1009400041832392E740828001114EC8B74901409C
:10095000930540421385098022CE26CC4ACA52C64E
:10096000EF00B0703DC1B7040020938484123709B2
:100970000240032AC90580201309890581451374A3
:10098000F40F933714004A859CA0EF00901B930549
:1009900000084A85EF00501D9C2085454A859E072A
:1009A0008507A6972326F900EF00B0191385098063
:1009B000EF00906A93050008B38545411315740054
:1009C0000505C205C1812695BD337244E2445249F2
:1009D000C249324A056173002030411126C4B70470
:1009E00000209384841222C680204AC23709024024
:1009F0001374F40F933714001305890581459CA0E7
:100A0000EF0030141305890593050008EF00D01599
:100A10009C201305890585459E078507A6975CC51B
:100A2000EF00301213157400050526959305000894
:100A3000193337050200EF0030163244A244124940
:100A400041017300203001A0B707EFBE37E700E097
:100A5000938707083CC701A0EFF2FFAB37040020E3
:100A60001304C42237490000B744000083554440B2
:100A70001305C935EF20805D83574440C207C18309
:100A800091EB1385C436EF2040701305803EEF10C4
:100A9000D050E9BF9D3DEF20605FF9BFEFF23FA569
:100AA0003745000041111305C531EF20006E0147A5
:100AB000C1461546914501451D3E05442149374A29
:100AC0000000B74A0000374B0000B74B0000930905
:100AD000F00F814738003E97B306F40014A3850752
:100AE000E39A27FFA1452800C93E05C113858B3233
:100AF000EF20A06905041305803E1374F40FEF2066
:100B0000003AE31834FD0144E9B713058A33EF20B6
:100B1000C06713858A34EF20406781443C00A69764
:100B20008C2313054B358504EF204052E39824FFB6
:100B3000D1B7EFF25F9E0945EF00102071644522A6
:100B4000EF20C03213050420EF20003913050420E4
:100B50004131393BB707002083A50708374500001E
:100B600013054537EF20804E3525AA85374500000F
:100B700013054538EF20804D3745000013054539F2
:100B8000EF20A060B7450000374500009385853A07
:100B90001305053BEF20804BB7070020B745000049
:100BA000371500009387070A154781461306001082
:100BB0009385053D1305C5A9EF104062B7070020D6
:100BC000B7450000371500009387470A154781464F
:100BD000130600109385C53D130585A5EF10006031
:100BE000EF10100001A0B71702409843B706FFF0BE
:100BF00041111367170098C3D84337060200758F59
:100C0000D8C39843B706F7FEFD16758F98C398436F
:100C1000B706FCFFFD16758F98C3D843B70601FFD2
:100C2000FD16758FD8C39843B70600ECFD16758F77
:100C300098C33707FF0098C723A6070202C402C65D
:100C40009843C166558F98C3B716024005679C420A
:100C5000F18F3EC6A24785073EC4B24781E7A2474F
:100C6000E397E7FEB71702409C431397E7006356EC
:100C7000070685473EC632478547631EF704B71708
:100C80000240D843B706C1FFFD16D8C3D843D8C326
:100C9000D84313670740D8C3D843758FD8C3D84308
:100CA000C166558FD8C39843B7060001558F98C3C6
:100CB000984393166700E3DD06FED843B71602405B
:100CC000719BD8C3D84313672700D8C32147DC42A0
:100CD000B18BE39EE7FE4101828002C669BFB71671
:100CE0000240D842B70700201146318B938707088E
:100CF0006305C70021466308C70237177A00130748
:100D0000072098C337170240584311839376F700A2
:100D100037070020130707003697142398433357EB
:100D2000D70098C38280D842D442416649833D8B24
:100D3000F18E1306270015CF3D47630FE6024147AA
:100D4000630FE602454781456313E6004146A1E291
:100D50003747024003270780418B0DC737177A00BA
:100D6000130707203306C70290C3C9DD98430583E4
:100D700049BF81454946E1BF85453546C9BF8145E3
:100D80003D46F1B737173D0013070790E1BF371510
:100D9000024058559316F700585563DF0604118337
:100DA0003D8B9306170037177A0013070720335738
:100DB000D70298C35455A182BD8A8DE29546330768
:100DC000D702058398C337170240585794433D8B89
:100DD000050733D7E60298C3984369B7054563947E
:100DE000A600E546E9BF3D456396A600D146338798
:100DF000E602C9BF8906E5BF3D8B9306170037178A
:100E00007A00130707203357D702F1B701A09701E3
:100E10000020938121A717F100201301A11E17358F
:100E200000001305657597F5FF1F9385A51D1386B3
:100E3000018263FAC5008322050023A05500110535
:100E40009105E3EAC5FE17F5FF1F1305A5259735A4
:100E500000209385259E6377B500232005001105AA
:100E6000E36DB5FEFD42739002BCFD42739042807B
:100E7000B7820000938202807390023097F2FFFFE6
:100E80009382821893E2320073905230EFF0BFD514
:100E900097020000938222CA7390123473002030AC
:100EA0001841AA87759B18C118411367170018C10C
:100EB0004167D443858A99E27D1765FFD843014590
:100EC000058B49CF94450547639BE6089843136714
:100ED0000708D44598C305476397E6089843136706
:100EE0000704944998C305476393E608984313673A
:100EF0000702D44998C30547639FE60698431367E2
:100F00000701944D98C30547639AE6069843136713
:100F10008700D44D98C305476395E6069843136749
:100F2000470098C3B821B4317A07E206558FD4211F
:100F3000C206558FD431D206558F9621FD16558F96
:100F4000D8CF9843799B98C34167D443858A99C287
:100F50007D1765FFC8431345F5FF058982809843D7
:100F60001377F7F7BDB798431377F7FB9DBF984307
:100F70001377F7FDBDBF98433D9B61B798435D9BD9
:100F800049BF98436D9B71BF376700401307074007
:100F9000832607203C25054893E616002320D7200A
:100FA0008325C7213316F8009346F6FFF58D232ECF
:100FB000B7204C25BDED8325C720035825008E079B
:100FC000F58D2326B7206E21BA975A21C205B3E5C5
:100FD000050123A0B7240E2142074D8F23A2E72449
:100FE0003835B7670040938707402DEB03A74720AC
:100FF000758F23A2E7201A25B76700409387074023
:1010000035E303A74721F98E23AAD720184985473E
:101010006319F700B767004003A7C761598E23AE75
:10102000C760B767004003A70760799B23A0E7600C
:101030008280E39705FB8325C720035825008E0790
:10104000D18D2326B7200E21BA975A21C205B3E5C8
:10105000050123A0B72442076E2141B703A747200B
:10106000518F41BF8546E313D7FA03A74721518F1C
:1010700023AAE72061BF1C4513975700634E07085A
:101080001C4513974700634B07081C45914613976F
:10109000370063510708894693974600AA9703A72C
:1010A0000718058B23A0E7189025883535EA984165
:1010B00003A607185607498F518F23A0E718B825B4
:1010C0003D8BB8A503A64718419A23A2C71803A6CB
:1010D0004718518F23A2E718D025B8352206598E1C
:1010E000D8354207598EF8256207518F23A4E71897
:1010F0009029F8352206598E98394207598EB82919
:101100006207518F23A6E71803A707181367170074
:1011100023A0E718368582808146BDBF8546ADBFD6
:10112000D84103A807180E07498F518F336707016D
:1011300069B785476389F50291C58947638BF502D5
:10114000094582801C45370500040D05370700045A
:10115000E98F0D070545638EE7026360F70213B55B
:101160001700060582801C45370500081305053069
:10117000F1BF1C4537050310D1BF3707000813071F
:10118000073005456387E70037050310898F13B5DE
:1011900017008280B7F7FF1F03A5477082801C41AC
:1011A00041677917F98F1CC1232005002322050010
:1011B00023240500B7070240232605001387870074
:1011C0006317E500D8431367F700D8C382801387FD
:1011D000C7016316E500D8431367070FFDB71387F0
:1011E00007036318E500D8438566938606F0558F9C
:1011F000E9BF138747046315E500D843BD66C5BF43
:10120000138787056316E500D843B7060F00C5B7F7
:101210001387C7066316E500D843B706F000C1BFC1
:10122000138707086316E500D843B706000FC1B758
:10123000138787406319E50003A747401367F7004A
:1012400023A2E74082801387C7416317E50003A705
:1012500047401367070FEDB793870743631BF500FC
:10126000B707024003A747408566938606F0558F6F
:10127000C1BFB7070240138747446316E50003A7C1
:101280004740BD66EDB7138787456317E50003A7A1
:101290004740B7060F00E1BF1387C7466317E50055
:1012A00003A74740B706F000D9B71387074863176D
:1012B000E50003A74740B706000F55BF138707494E
:1012C0006319E50003A7474D1367F70023AAE74C0E
:1012D00082801387074A6317E50003A7474D13670A
:1012E000070FEDB71387074B6319E50003A7474DB9
:1012F0008566938606F0558FD1BF1387074CE31997
:10130000E5FC03A7474DBD66FDB71C4161773D076E
:1013100094517D8F9C45D58F9449D58FD449D58FD5
:10132000944DD58FD44DD58FD451D58F9455D58F1D
:10133000D98F1CC1DC455CC19C411CC5DC415CC52E
:1013400082801C4189C593E717001CC182804167D8
:101350007917F98FDDBF1C4101C6DD8D0CC182807C
:1013600093C5F5FFFD8DDDBF4CC18280931735001D
:1013700063D70700B707024023A2A74082809317D4
:10138000250063D70700B707024023AAA74C828035
:10139000B7070240C8C38280EFF2EF97C13F6FF0FA
:1013A000CF999C4513F7070113F8F70001C7D841FF
:1013B0003368E8008E2113F7F50F39C318418146D1
:1013C000854E3D4F930F800293028004214E339649
:1013D000DE00B3F8C500631116039398260033139B
:1013E0001F011343F3FF3377E300B318180133E70A
:1013F000E800639FF70550C98506E39AC6FD18C14A
:101400001307F00F6375B70454412146854E3D4FD5
:10141000930F800293028004414EB398CE0033F7BD
:1014200015016392E8021317260001173313EF002A
:101430001343F3FFB376D3003317E800D98E639DCF
:10144000F701232A15010506E319C6FD54C1828060
:10145000E39457FA10C94DB7E39757FE23281501B7
:10146000DDB7B7070140635A0504DC4F9356050109
:10147000131805013707300013F6F600135808015A
:10148000B376E50063500506639BE602930606010A
:101490000D46B316D60093C6F6FFF58F99C91357BC
:1014A00055011377F73F12073317E800D98F6357B9
:1014B0000504370701405CCF8280DC4345BF13172A
:1014C000B500635607008D46B396C600E9B71357BB
:1014D00055011377F73F12073317E8001347F7FF5B
:1014E000F98F6DBF6390E60237060140544237071B
:1014F00000F17D17F98F758F58C2D5F1370701407C
:101500005CC382801317B500635C07008D46B396F9
:10151000C60093C6F6FFFD8EB707000FD58FF1BF4B
:101520001357550112073317E8001347F7FF7D8F54
:10153000B707000FD98FD1B7B707002023A4A70A98
:101540008280B707002003A7870A8947102163110B
:10155000F70214318D4763EDD7003C219A0637E737
:1015600000E09607D58F93F7F70F32972300F740E7
:1015700054410547935756003317C70089CA9387CC
:1015800007048A07B7E600E0B69798C3828093877E
:101590000706C5BF371702405C439146B18B638590
:1015A000D700A1466382D706B7177A009387072032
:1015B0001CC1371602405C423707002013070701A1
:1015C0009183BD8BBA9794231C41B3D7D7005CC1DC
:1015D0005442A1829D8ABA969422B3D6D70014C5EC
:1015E0005442AD829D8A36971823B3D7E7005CC575
:1015F00058423983937637001387418036971823F2
:10160000B3D7E7021CC982805C435843C166C983D3
:10161000758FB7F6FF1F83A6C670BD8B890713961B
:10162000160163480600C54601466392D702C947C2
:1016300039A88946638FD702BD46638ED702C1465B
:10164000638ED702C54601466393D700C1471DEF9D
:101650003747024003270780418B05C737177A00B9
:1016600013070720B307F7021CC121D61C4185834D
:1016700081B701466DBF0546B547D1BF0146BD479D
:10168000F9B737173D0013070790E9BFB7150240B8
:10169000D8559316F700D85563DF060411833D8BA8
:1016A0009306170037177A00130707203357D7021E
:1016B00018C1D455A182BD8A8DE295463307D70261
:1016C000058318C137170240585714413D8B050751
:1016D00033D7E60218C1184171B785456394B60047
:1016E000E546E9BFBD456396B600D1463387E602BD
:1016F000C9BF8906E5BF3D8B9306170037177A00EF
:10170000130707203357D702F1B799C5371702409F
:101710005C4B5D8D48CB8280B7170240D84B134598
:10172000F5FF798DC8CB828099C5371702401C4FD1
:101730005D8D08CF8280B7170240984F1345F5FFA3
:10174000798D88CF828099C5371702405C4F5D8DB7
:1017500048CF8280B7170240D84F1345F5FF798DE7
:10176000C8CF8280EFE23FDB1629F577FD17F58FB2
:10177000F621DA257971D58F1EA95625FD77938735
:10178000379FF58FD6212A842EC6D58F9625D58FE3
:10179000B625D58F5EA55E29C207C18393F7F7CF23
:1017A000D98F5EA96808FD33B7470140938707804A
:1017B000B245631EF402A2576547B387E70298411A
:1017C000930640060A07B3D7E70233D7D702B3F729
:1017D000D7021207920793872703B3D7D702BD8B8F
:1017E000D98FC207C1831EA445616FE01FD59257F0
:1017F000E1B791C55E250967D98F5EA582805A251C
:10180000F977FD17F98FD5BF13F7F50F85471583C6
:10181000B395B7006319F7009307C500984301CE4D
:10182000D98D8CC38280894693074501E318D7FE82
:1018300093070501E5B793C5F5FFF98DDDB75E297F
:1018400001C6DD8D4EA9828093C5F5FFFD8DDDBFFC
:1018500093F5F51F4EA182804A211375F51F8280F2
:101860000A216D8D3335A000828013F7F50F854670
:101870001583B397B6006311D7025A25F98F1A2141
:1018800001454207418381CB0545A181B315B500D0
:101890006D8F3335E000828089466314D7001A29A2
:1018A000F1BF5A29E1BFB70700209387470C98433F
:1018B000636FA702D043B386C7006316D5005441B7
:1018C0003E85B296D4C35041B306C500631CD70011
:1018D000B706002083A6C60A6306D7005443184300
:1018E000B29654C118C16303F50088C38280BA87D9
:1018F0007DBFEFE2BFC041112AC6EF007037B706C7
:10190000002083A7C60A370600209386C60A13065E
:10191000060B3245A1EF370700209307476393F585
:10192000F7001307476381C51387F700419BB7058D
:1019300000209385450C23A2050098C18D65C11533
:10194000AE97C19B23A2070023A00700B385E74001
:101950009CC21CC3B707002023ACB70AB7070020FE
:1019600023AAB70AB70700804CC31CC2032A06008B
:10197000B377AA0085E39307F5FF3957636CF70047
:101980009307050113F7F70041C313F707FF41075A
:1019900063EBE706814489A022872E8461A058C1A9
:1019A0005CC011375840B70600209386860B9042E2
:1019B000B307E94023A0F90063F3C7009CC2B7074F
:1019C00000203367EA009387C70B58C09843C104CF
:1019D00023200400050798C3EF00D04593F7F400D7
:1019E000D1CBA167938707807390073037460000FB
:1019F000374500001306863E930500111305054187
:101A0000EF10C06401A0BA87370700200329470BF5
:101A10009309470BE360F9F8370700200324470CCC
:101A20001307470C50406374F6000C40B5F5944220
:101A3000E38286F61440044314C33307F64093064A
:101A40000002E3F1E6F63305F4009376F500A1DA3F
:101A5000A1679387078073900730374600003745AA
:101A600000001306863E9305F00C13050541EF10A8
:101A7000E05D01A0268541016FE09FAB55C1EFE21B
:101A80009FA9B7070020032745FF83A7070B2A84D8
:101A9000B376F7009DE2A1679387078073900730C4
:101AA00037460000374500001306863E9305401276
:101AB00013050541EF10805901A0832605FF9DC243
:101AC000A16793870780739007303746000037453A
:101AD00000001306863E9305501213050541EF10D2
:101AE000E05601A093C7F7FFF98F232AF5FEEF0018
:101AF0003018B70700209387470B9443032744FF10
:101B0000130504FF369798C3793BB70700209387E6
:101B1000070C9843050798C3EF00D0316FE0FFA191
:101B20008280B7E700E041572387E7402386E740FC
:101B3000B7F700E023A0070023A20700814694C75F
:101B40000147D8C737070020832507081307803EC1
:101B5000814633D6E5023D4790CBD4CB98C38280F3
:101B6000EFE27F9B411102C6F32750303EC6B247D9
:101B70000D478D8B6384E702A1679387078073907D
:101B800007303746000037450000130646439305EB
:101B9000600B13050541EF10604B01A0B707012052
:101BA00093870700BD8B9DC3A167938707807390C0
:101BB00007303746000037450000130646439305BB
:101BC000B00B13050541EF10604801A0993FB7E73E
:101BD00000E0056723A0E710116723A0E71023A406
:101BE0000180EFE0EFF1014541016FE01F957311B6
:101BF0000134A1679387078073900730B7F700E03F
:101C000023A20700EF00700811C5B7E700E01167D5
:101C100023A0E720A167938787887390073073110B
:101C2000013473002030A1679387078073900730D9
:101C3000938781809843050798C3828013878180AA
:101C40001C438DE7EFE23F8DA16793870780739078
:101C5000073037460000374500001306464393051A
:101C6000201013050541EF10603E01A0FD171CC3B5
:101C700091E7A167938787887390073082809307E5
:101C800085007D575CC118C55CC51CC923200500B3
:101C900082802328050082809841FD5693078500A5
:101CA000631ED7001C49D843D8C10CC79CC5CCC300
:101CB0001C4188C985071CC18280B687D4439042E5
:101CC000E37DC7FECDB7544118451C4998C654C39F
:101CD000D4436393A600D8C39843232805007D17F7
:101CE00098C388438280EFE21F8341112AC6253FB3
:101CF0003245005DA1371335140041016FE0FF83C9
:101D0000304115C2EFE23F8158451445AA8732970A
:101D100058C56364D700184158C52E85CC47EF10CD
:101D2000C0276FE09F818280EFE2EFFE2A84E53DCD
:101D30008344540413094402E204E184634590029D
:101D4000FD57A302F404DD3DF93D83444404130927
:101D50000401E204E18463449002FD572302F40489
:101D6000F13D6FE08FFD5C50E1DF4A85EF00903E72
:101D700019C1EF00705AFD14E204E184C1B71C4898
:101D8000E9DF4A85EF00103D19C1EF00F058FD145E
:101D9000E204E184C9B7EFE20FF841111DE1A16748
:101DA000938707807390073037460000374500005F
:101DB0001306C6459305001113050541EF100029D0
:101DC00001A05C5D2EC62A84BDC33841B3B7E702CB
:101DD000B9EF913D3040585C1440232C0402B30706
:101DE000E602B24554C03387F600918FB6975CC4C3
:101DF000FD572302F40418C4A302F40495E11C481F
:101E000099CB13050401EF00F03411C5B7E700E0EA
:101E1000116723A0E7201D35054541016FE0EFF173
:101E200013050401A93D13054402913DEDB7A167D7
:101E300093870780739007303746000037450000CE
:101E40001306C6459305501413050541EF100020F5
:101E500001A0EFE24FEC411121C1B3B7A502AA8462
:101E600085EF3305B502930770FB63E7A7021305FF
:101E700085042EC6BD3C2A8401CDB245AA8799C1EE
:101E8000930785042CC01CC044DC8545228521377E
:101E9000228541016FE06FEAA16793870780739005
:101EA000073037460000374500001306C645930546
:101EB000601C13050541EF10601901A0EFE22FE34C
:101EC000011132C61DE1A167938707807390073027
:101ED00037460000374500001306C64593051055E8
:101EE00013050541EF10801601A02A84AE898DE507
:101EF0003C419DC3A16793870780739007303746A5
:101F00000000374500001306C645930550551305DC
:101F10000541EF10A01301A0EF00D04015E5B24736
:101F2000014985C7A16793870780739007303746BB
:101F30000000374500001306C6459305A05513055C
:101F40000541EF10A01001A001497D5A930A4402F7
:101F500037EB00E0916B95A0B24781E7C5310145B1
:101F600059A0631509002808EF00702DC139092315
:101F70005D3983474404E207E18763944701230204
:101F8000040483475404E207E18763944701A302F2
:101F900004046D316C002808EF00D02B21ED228560
:101FA000993329C5B2455685EF00F00E2285AD3B29
:101FB000512519E123207B210549B531045CC9DC99
:101FC000CE852285FD142D3B04DC1C4899CB1305DE
:101FD0000401EF00301811C5B7E700E0116723A036
:101FE000E720A939054505616FE0EFD322852D3B38
:101FF0009125D9B722850D3B352D2285ED314DDD5B
:10200000B9BF15E5EFE22FD1A167938707807390E1
:102010000730374600008565374500001306C64582
:10202000938585AC13050541EF10400201A09DCDBD
:1020300037360020930646638147014713064663FF
:10204000214883A846006398A80093173700B297E9
:102050008CC3C8C321A891E783A806006393080036
:10206000B6870507A106E31E07FDFDF38280EFE2B8
:102070008FCA41112A842EC632C475368347440460
:102080007D572246E207E187B2456394E7002302C9
:102090000404834754047D57E207E1876394E70013
:1020A000A302040432C62EC4513E1C5CA245324633
:1020B00089E713054402EF0090022285B531410102
:1020C0006FE0AFC7370700201307070D1C43944389
:1020D000B70700209387070F81E67D5798C382805A
:1020E000184358471843DDBFEFE24FC137090020BE
:1020F000B70700209304C90C83A907102A849C40C9
:1021000088404111A388070411052EC66D3E7D57F6
:102110009307C90CB245631CE40295C9B737002088
:102120009387C77D9440D84398C610479440D0C643
:1021300094401047910654C29440910614C79840A9
:102140005CCB9843050798C341016FE06FBE98438D
:102150004E9440C3637A3401370700200325470DAE
:102160008C439105153ECDB7370700200325070D99
:102170008C439105EFF05FB2B70700209387070FFC
:102180009843E373E4FC80C3C1B7EFE22FB7373461
:102190000020B70900201304047F370A002093842D
:1021A000C90D9C40EDDFEFF01FA85C4403A9C700F8
:1021B00013054900EFF03FB113078A0D1C43FD17CB
:1021C0001CC39C40FD179CC0EFF05FA703250903CB
:1021D000EFF0DF8A4A85EFF07F8AD1B7EFE22FB1C7
:1021E00013192600AA8A4A852E8A368BBA8BBE8995
:1021F000EFF02FF01DC1AA8413054005EFF06FEF3B
:102200002A8409C904D98147C146631A0A00230AEE
:10221000050225A02685EFF07F867D5565A2330750
:10222000FA00030707003306F400230AE60201C799
:102230008507E396D7FEA3010404B94763F4770347
:10224000A1679387078073900730374600003745B2
:102250000000130606479305703913050541EF008A
:10226000F05E01A0130A4400528523267403232242
:10227000740523240404EFF0DFA113058401EFF0BB
:102280005FA13D471305C9FF33077741269500C875
:1022900018CC40D023060404A30604042307040436
:1022A000A307040423080404A30804045A86D6855B
:1022B0004199EFE0EF9408C06384090023A08900EE
:1022C000EFF07F96B70700209387870D9843B704F8
:1022D0000020B7390020050798C31387C40C1843A2
:1022E0009384C40C138949676310070E80C0984318
:1022F00085476316F70693894967930AC9124E8585
:10230000D109EFF0DF97E39C3AFF37350020930ABD
:10231000057A1305057AEFF09F963735002093096B
:10232000457B1305457BEFF09F953735002013055E
:10233000857CEFF0DF94373500201305057FEFF043
:102340001F94373500201305C57DEFF05F93B70765
:10235000002023A8570DB707002023AA370DB70781
:1023600000209387470E9843050798C3370700203E
:102370001307870E5C54144363F3F6001CC35147E4
:10238000B387E702CA97D843144718C454C4144704
:1023900023A246012324470198435CC8050798C33C
:1023A000EFF0DF89B707002083A7C70F054599CB5A
:1023B0009C40D8575C546377F700B7E700E011679B
:1023C00023A0E7206FE02F96B707002083A7C70F51
:1023D000D9F79C40D8575C54E3E3E7F880C041B795
:1023E000EFE26F93B7070020B745000037250000E4
:1023F0009387C70E01478146130600109385454811
:102400001305A518E13B0544631E8502EF0050202B
:10241000631A8502A1679387078073900730B70717
:1024200000207D5723A8E70EB707002023AEA70E94
:10243000B707002023A00710EFF08FF283A7C18019
:102440006FE0AF8FFD57E31BF5FEA1679387078011
:102450007390073037460000856537450000130646
:1024600006479385058413050541EF00303E01A022
:10247000B70700209387070E9843050798C382800B
:10248000B707002003A507108280B707002083A7A5
:10249000070E63980718EFE20F88B70700209387AD
:1024A00007108043050480C339E8B70700209387ED
:1024B000070D9843184305C7A1679387078073905A
:1024C000073037460000856537450000130606478C
:1024D000938575AC13050541EF00503701A0370710
:1024E00000201307470D9443104390C3B707002003
:1024F00014C39387470F9843050798C3E1363706FF
:1025000000209307060F9C4337370020B7050020B3
:102510001306060F130747679385C50C01456375BE
:10252000F4029C41D146DC57B387D7023E9718434B
:10253000854763F3E7000545B707002083A74710E9
:1025400091C305456FD07FFF370E0020B70E0020E6
:10255000514F93070E0D9443944281E6FD571CC2E0
:10256000C9B79C43DC47DC47D4436374D40014C22E
:102570004DBF83A8870003A8C700D44B138347002F
:1025800023A408012322180183A84600639468004D
:1025900023A2060103A8060023AA07007D1823A092
:1025A0000601945795CA03A8C70183A8070283AF01
:1025B00046002324180183A8070223A208011388D8
:1025C000870163940F0123A2160103A8060023A428
:1025D00007027D1823A0060193868E0E03A8C7026A
:1025E00083A8060063F4080123A00601B306E803EC
:1025F000BA9683A8460083AF880023A4170123A6B8
:10260000F70183AF880023A26F0023A46800D4CB16
:102610009C4285079CC29C41DC57E36CF8F205455F
:102620000DBFB70700209387870F98430145050723
:1026300098C38280EFD29FEC370400201304040E6D
:102640001C40411185E7A16793870780739007308D
:102650003746000085653745000013060647938519
:10266000358B13050541EF00701E01A0EFF0AFDBC5
:102670001C40FD171CC01C4089CB01452AC6EFF049
:10268000EFDB324541016FD0BFEAB707002083A7D7
:10269000870DE5D7B7360020373500208147938670
:1026A000867C370F002013054567D148370300208B
:1026B000370E0020854E59A8DC46DC47CC4F90539E
:1026C000985790C503A807022322B80003284700A3
:1026D000938587016313B80050C3104323A40702F6
:1026E0007D1610C38C47D047D84B1388470090C540
:1026F0004CC24C436393050150C3104323AA070007
:102700007D1610C313078F0ED0570C4363F3C5001B
:1027100010C3330716032A974C4383AF85008CC739
:1027200023A6F70183AF850023A20F0123A405018F
:102730000C43D8CB85050CC31307C30C184358575B
:102740006366E60013074E102320D70198422DF749
:1027500099C3EFF03F97B70700201387870F044313
:102760001384870F91CC370900208549393B09C56F
:102770009307491023A03701FD14EDF8232004002E
:10278000B707002083A74710E38907EEB7E700E00B
:10279000116723A0E7200545D5B519E5B7E700E0A7
:1027A000116723A0E7208280EFD2FFD6B707002071
:1027B00083A7070E41119DC3A1679387078073907C
:1027C00007303746000037450000130606479305DB
:1027D000905413050541EF00700701A02AC649393E
:1027E00032458145EFF05F90B13511E5B7E700E084
:1027F000116723A0E72041016FD03FD4B707002025
:1028000003A7070EB70700209387471001C70547A6
:1028100098C3828023A00700B70700201387870E84
:1028200018431386870EB7370020938747675148B0
:10283000B3060703B385D700884115C5C841A10673
:10284000BE964841C8C16314D5005441D4C1D14695
:10285000B306D702B697DC43D447B707002023A6B8
:10286000D70C18C2828015E7EFD2FFCAA167938701
:1028700007807390073037460000856537450000B4
:1028800013060647938525C013050541EF00007C1C
:1028900001A07D1771BFEFD21FC805E5A16793871F
:1028A0000780739007303746000085653745000084
:1028B000130606479385C5C113050541EF0000794E
:1028C00001A0B70700202E8483A5C70CE105EFF017
:1028D000AFBC85452285EFF03F816FD01FC6EFD298
:1028E0009FC32A8705E5A167938707807390073008
:1028F0003746000085653745000013060647938577
:1029000025C513050541EF00607401A0B70700203D
:102910009387C70C54432E858C4303A88600D4CDDF
:102920008C4323A0050303A807008C46610823A25B
:10293000050103A807009C43610823A4060198D75A
:102940001C4385071CC311C27D55B285EFF0CFF93A
:102950006FD0BFBE5C45DC478DE7EFD2DFBBA16720
:1029600093870780739007303746000085653745A9
:10297000000013060647938525C813050541F92570
:1029800001A0D04F945398579385870114C6D0C2A5
:1029900050436313B60054C3144323A40702FD1627
:1029A00014C3370700200327070ED45725EF8C47A1
:1029B000D047D84B90C5D04748434CC29385470079
:1029C0006313B50050C3104323AA07007D1610C33C
:1029D000370700201307870E10436373D60014C314
:1029E00051473386E602373700201307476732978F
:1029F0005043084690C7C8C708464CC10CC6D8CB40
:102A00001C43014585071CC3B707002083A7C70CDB
:102A1000DC5763F8D700B7070020054723A2E7106B
:102A200005458280373700201307877C50430846CE
:102A3000D0CF88D308464CC10CC698D7D1B7B707BA
:102A4000002083A7470F1CC1B707002083A70710EA
:102A50005CC18280EFD23FAC41111DE1A167938739
:102A600007807390073037460000856537450000C2
:102A7000130606479385D5CF13050541C12B01A049
:102A80009DE1A16793870780739007303746000068
:102A9000856537450000130606479385E5CF130586
:102AA00005416D2301A02EC62AC4EFF0CF9737074A
:102AB0000020B70700201307C70C83A607101C438C
:102AC0002245B24583C7170599CB1C43A388070449
:102AD0000544EFF0AF96228541016FD01FA69C41BF
:102AE0007D570144E387E7FE370600200326460FA3
:102AF0000328050058416307C80063E5E60023A0EA
:102B00000500F9B73386E640E37BF6FE958FBA976A
:102B10009CC13537014475BFB7070020054723A284
:102B2000E7108280B707002083A7C70F054581CB38
:102B3000B707002003A5070E133515000605828090
:102B4000EFD27F9D37040020EFF0EF8D1304441186
:102B50001C40B1E737450020130945801305458027
:102B6000EFF0EF91374500209304858113058581AF
:102B7000EFF0EF90B707002023A427110146B70715
:102B80000020C145114523A69710EFF08FAC08C077
:102B900019C5B74500009385054BEFF08FC6EFF0E0
:102BA000EF896FD09F99EFD21F974CC108C9AA87B0
:102BB0006362B602184D158E0545637BE60093856A
:102BC0004700B707002003A5C710EFF0EF8C0145C1
:102BD0006FD0BF966375D6000545E3FBD5FE9385A0
:102BE0004700B707002003A58710C5B7EFD2BF92F3
:102BF0002A84AE8432890C4CA6864A86A695228504
:102C00005D3719E16FD07F931C4C2285BE941C5018
:102C10008297D5B7EFD23F90B707002083A78710E0
:102C20004111AA84DC472EC6C04713054400EFF0CB
:102C30008F8983474402324613F7470011CBA6859C
:102C400022856D371C502285829741016FD0FF8EFF
:102C5000F99B2302F402FDB7EFD2FF8B370400206B
:102C60009306841098421C4391EBB707002093878A
:102C7000C710904398C390C26FD03F8C5C47FD55FE
:102C80008843493FF1BFEFD29F8611694111B70ACE
:102C90000020B7090020370B0020B70B00201309D4
:102CA000C94883A78A10984329CBDC47814C03ACE1
:102CB0000700EFF0EFFBEFF0AFFC83A709112A84C8
:102CC00093840911130A4B11636CF50288C0638F5A
:102CD0000C0283A7CB1090431336160003250A007D
:102CE000B3058C40EFF0AFB8EFF0DF9411EDB7E72C
:102CF00000E0116723A0E72001A8854C014C55BFD7
:102D0000A13F80C0EFF01F93214C05A00146E3676F
:102D100085FDEFF03F92A2856285ED3DF5B79247C4
:102D2000B2458297824763DD070003250A0001460A
:102D30008A85EFF0AF9835D582472245E3C107FE7B
:102D400022445C4895E3EFF0AFF39C40AA8C637398
:102D5000F5001937824723A09401FD17E367FCFCB7
:102D60008A07CA979C43828713054400EFE0BFF5AA
:102D7000D9BF834744020C4C924693E717002302C5
:102D8000F4026686B6952285393D45D183474402D3
:102D900013F7470019CB1C4C924566862285BE95D9
:102DA000B1351C502285829749B7F99B2302F40262
:102DB000CDBF83474402F99B2302F402BDB783478A
:102DC0004402924593E717002302F4020CCC95E1EC
:102DD000A167938707807390073037460000374517
:102DE00000001306864B9305903513050541B92C59
:102DF00001A0E6866686E695228575333DB7834752
:102E0000440213F7270045FB2285EFE03FC731BF9F
:102E1000EFD26FF03533B707002083A7471195E352
:102E2000A1679387078073900730374600003745C6
:102E300000001306864B93059011130505413924B4
:102E400001A0B7070020B745000037350000938781
:102E5000871139478146130600109385054D1305E8
:102E600065C8EFF0AFB74DDD6FD02FEDB70700208D
:102E700083A7070837177A0013070720B3D7E7029D
:102E80003707002093F7F70F230FF7101307803E43
:102E9000B387E70237070020231EF7108280B7F7B9
:102EA00000E0D8438146799BD8C3370700200357F9
:102EB000C7113306A70290CBD4CB98431367070101
:102EC00098C398431367170298C3D843058B75DFDF
:102ED0009843799B98C38280EFD2EFE32A841165EF
:102EE000011185451105EFE03F84930700207C82A6
:102EF000371501408D473EC44C00E147130505805E
:102F00003EC6EFE00FCA22C837440140B7070800A9
:102F10000C08130504803ECC02CA231E0100EFE01A
:102F20007F84854513050480EFE0BF8C05616FD079
:102F3000CFE0EFD2AFDCB7440140AE893289014423
:102F400093840480634524014A856FD06FDE930526
:102F500000042685EFE0DF907DD9B3878900838563
:102F6000070026850504C205C181EFE07F8ED9BF29
:102F7000138701811C43B7460020938606833E9544
:102F8000636BD500B70601209386068063E5A60033
:102F900008C33E858280FD57EDBFB3C7A5008D8B6A
:102FA0003307C50081E78D4763EDC700AA87637EBD
:102FB000E508942185078505A38FD7FEE3EBE7FE9F
:102FC000828093763500AA8789CA94218507850572
:102FD000A38FD7FE93F63700C5BF9376C7FF13863E
:102FE00006FE63F0C70683A3050083A2450083AFF6
:102FF000850003AFC50083AE050103AE450103A301
:10300000850183A8C5019385450223A0770003A805
:10301000C5FF23A2570023A4F70123A6E70123A895
:10302000D70123AAC70123AC670023AE17019387FA
:10303000470223AE07FF75B790419107910523AE74
:10304000C7FEE3EBD7FEE3E6E7F6828039713EDAAE
:103050002ED232D436D63AD842DC46DE938741812E
:1030600022CC804326CA06CEAA8409C41C4C99E30C
:10307000228515230C4454102686228536C6EF007F
:10308000D016F2406244D2442161828001119387BC
:10309000418122CC804306CEAA8519C41C4C89E705
:1030A0002AC62285CD29B245104422856244F240C9
:1030B00005616F00F076011126CA4AC806CE22CCFF
:1030C0004EC652C4AA842E8901C51C4D91E3E1214C
:1030D0009C4C804499E326857D29971700009387AF
:1030E000E741631BF402C0405E24A18BB1C71C48BA
:1030F000A1C7FD59294A1C4483450900FD17B1E9C0
:103100001CC463DD07062286A94526856120FD577C
:103110006308F502294535A09717000093870740FB
:103120006314F4008044C9B7971700009387073BE6
:10313000E31CF4FAC0444DBFA2852685112A55D957
:103140007D55F2406244D2444249B249224A056167
:1031500082801CC4050963D70700184C63CAE700C6
:10316000638845011C401387170018C08CA361B702
:10317000228626850520E31035F9D9B71C40138730
:10318000170018C0294798A371B793874181AA8572
:10319000884315B7011122CC26CA4AC806CE4EC6AE
:1031A000AA842E89328401C51C4D91E3ED26971720
:1031B00000009387A7346317F406C0401C4C1CC45E
:1031C0005E24A18BC1C31C48B5CF1C48084093792D
:1031D000F90F1379F90F1D8D5C486346F500A28540
:1031E0002685692C25E51C440505FD171CC41C40DB
:1031F0001387170018C0238037015C486388A70035
:103200005E24858B81CBA9476316F900A2852685AC
:10321000B5240DEDF24062444A85D2444249B24998
:1032200005618280971700009387472F6314F4008D
:10323000804469B7971700009387472AE310F4F892
:10324000C044ADBFA2852685212041D17D59D9B783
:1032500041119387418126C2844322C44AC006C6D5
:103260002A892E8489C49C4C99E326852D2697179C
:1032700000009387A728631BF402C0400317C40013
:1032800093170701C18393F68700ADEA93F6070110
:1032900095EEA5472320F900136707045AA47D552E
:1032A000B2402244924402494101828097170000B3
:1032B0009387C7266314F4008044C9B797170000AA
:1032C0009387C721E31CF4FAC0444DBF918B9DC383
:1032D0004C5889C9930744046384F5004A85312317
:1032E000232A04025E242322040093F7B7FD5EA480
:1032F0001C481CC05E2493E787005EA41C4899EB21
:103300005E241307002093F707286385E700A28552
:103310004A85A1215E2413F717001DC35C482324AE
:103320000400B307F0401CCC1C480145B5FB8317D3
:10333000C40013F707082DD793E707045EA485B7E9
:10334000898B014791E3584818C4F9BFDE25011164
:1033500022CC26CA06CE4AC84EC613F78700AA84D6
:103360002E8479EBD841634DE000B841634AE00018
:103370000145F2406244D2444249B249056182802B
:1033800058547DD703A904009396370123A0040065
:1033900063DB060670485E24918B99C75C401D8EE6
:1033A0005C5899C33C401D8E5C540C508146268568
:1033B0008297FD575A24631DF5009440F54763E852
:1033C000D706B70740208507B3D7D700858BA5C39D
:1033D0001C48232204001CC09317370163D8070040
:1033E000FD576314F5009C4091E368C84C5823A036
:1033F0002401BDDD930744046384F5002685F5268A
:10340000232A0402B5B70C5001468546268502974B
:10341000FD572A86E311F5F89C40B5DF75476385B3
:10342000E70059476393E70423A0240191B713678A
:1034300007045AA47D5535BF83A90501E38A09F223
:1034400003A905008D8B23A03501330939410147BC
:1034500091E3D84918C4E35D20F11C540C50CA868E
:103460004E86268582976347A0005E2493E7070473
:103470005EA4C9B7AA993309A940F1BF9C49B9CF45
:10348000011122CC06CE2A8411C51C4D81E72EC61F
:103490001922B2459717000093874706639BF500F2
:1034A0004C408397C50095C722856244F240056170
:1034B00071BD97170000938767066394F5000C446D
:1034C000CDB79717000093876701E39CF5FC4C4448
:1034D000C9BFF24062440145056182800145828096
:1034E000411122C406C62A844EA572A523200500D8
:1034F0002322050023240500232205062328050096
:10350000232A0500232C0500214681451305C50506
:10351000EFD06F8397170000938727BC5CD0971775
:103520000000938747BE1CD497170000938727C2DB
:103530005CD497170000938787C400D01CD8B24092
:1035400022444101828097050000938565F3A9A27A
:10355000411126C2130680069384F5FFB384C4028A
:103560004AC02E8922C406C6938544073D262A8474
:1035700001CD2320050023222501310508C413862F
:1035800084068145EFC03FFC2285B240224492442C
:103590000249410182801C4DADE3411106C622C49F
:1035A00097070000938767FA1CD59387C1819C43D6
:1035B0002324050423260504232805046314F500A9
:1035C00085471CCD2A841D2848C02285052808C4AB
:1035D00022852D2048C448400146914511370844B2
:1035E0000546A545F53D48440946C945D53D8547AD
:1035F0001CCCB240224441018280828041119387D9
:10360000C18126C284434AC006C69C4C22C42A8972
:1036100099E326854937938484048044DC40FD1770
:1036200063D607009C40B9CF8440C5BF0317C400D0
:1036300039E7C177850723220406232004002322CB
:103640000400232404005CC423280400232A04006B
:10365000232C0400214681451305C405EFC0BFEEAD
:10366000232A0402232C0402232404042326040412
:103670002285B240224492440249410182801304CF
:10368000840671BF91454A85E13588C051FDB14737
:103690002320F9000144E9BF797122D44AD052CCE9
:1036A00056CA5AC85EC606D626D24ECE2A8AAE8AD8
:1036B000130485040149054BFD5B09ECB25022540B
:1036C0004A8592540259F249624AD24A424BB24B5D
:1036D00045618280044483294400FD1963D40900B4
:1036E0000040E1BFDE24637BFB008397E400638737
:1036F0007701A6855285829A3369A900938484064E
:10370000E9BF1971A6DAAE848395E500A2DC86DEF6
:10371000328463DB0500DE2423A0060093F707084C
:1037200085E7930700401DA0300836C6EF00B02B98
:10373000B246E34205FE7247BD67F98F7977BA97C3
:1037400093B717009CC2F1BF930700041CC0F6504A
:103750006654D654014509618280DE25011122CCD0
:1037600006CE26CA4AC8898B2E8489CF9307740453
:103770001CC01CC885475CC8F2406244D244424920
:103780000561828074003000AA84A53FA2452A8981
:103790002685212219E98317C40013F7072069FF42
:1037A000F19B93E727005EA4D1B7970700009387AA
:1037B000C7D99CD45E2408C008C893E707085EA454
:1037C000A2475CC8B24781CF8315E4002685EF008D
:1037D000B02411C55E24F19B93E717005EA45E241C
:1037E0003369F9002316240141BFDDC583A7C5FF56
:1037F000411122C406C626C21384C5FF63D3070045
:103800003E94AA84EF00102997D7FF1F93878791D2
:103810009C4391EF2322040097D7FF1F23A4879096
:103820002244B2402685924441016F00D026637E37
:10383000F40014403307D4006396E7009843DC4358
:10384000369718C05CC0C9BFBA87D84319C3E37D97
:10385000E4FE94433386D700631F86001040B2967F
:1038600094C33386D700E31DC7FA10435843B2967A
:1038700094C3D8C375B76375C400B1479CC04DB736
:103880001040B306C4006316D70014435843B296E1
:1038900014C058C0C0C369B78280011126CA93847E
:1038A0003500F19806CE22CC4AC84EC6A104B147D5
:1038B00063FBF404B14463EAB4042A89EF00901D69
:1038C00097D7FF1F9387078698433A8429E897D7AD
:1038D000FF1F938767859C4389EB81454A85EF00ED
:1038E000607C97D7FF1F23A1A784A6854A85EF0098
:1038F000607BFD59631B3507B1472320F9004A85DA
:10390000EF00701929A0E3D804FAB1471CC10145A2
:10391000F2406244D2444249B249056182801C406F
:10392000858F63C10704AD4663F6F6001CC03E9464
:1039300004C001A85C406315870217C7FF1F23233B
:10394000F77E4A85EF0030151305B4009307440055
:1039500061993307F5404DDF3A94898F1CC04DBF04
:103960005CC3C5B72287404095B7130435007198F2
:10397000E30085FCB305A4404A852D27E31A35FBF7
:10398000A5BF1C46FD171CC663DA0700184E63C5A9
:10399000E700A9476394F5006FF0CFFF1C422E8526
:1039A0001387170018C28CA38280011122CC26CA6B
:1039B0004AC84EC652C406CE2A89AE893284B304A0
:1039C000D6007D5A63149400014501A80C204E8650
:1039D0004A85453F0504E31745FFF2406244D2445F
:1039E0004249B249224A05618280357122CD26CBF7
:1039F0004AC94EC706CF52C556C35AC1DEDEE2DC05
:103A0000E6DAAA89AE843289368409C51C4D99E369
:103A1000EFF07FB897170000938747AE6398F40CD8
:103A200083A44900DE24A18BE5C79C48F5C3930716
:103A30000002A304F1029307000302D22305F1025E
:103A400022C6930B5002971A0000938A2AAF054CA6
:103A5000294B4A841C2099C3639F770DB30C2441E2
:103A6000638D0C00E6864A86A6854E853D3FFD5750
:103A70006300F51E9256E69636D21C20638A071C18
:103A8000FD571309140002C802CE3ECA02CCA30996
:103A9000010482D48345090015465685EF00007E57
:103AA00013041900C24751E913F7070109C71307A7
:103AB0000002A309E10413F7870009C71307B00246
:103AC000A309E104834609001307A002638FE606F9
:103AD000F2474A84814625461820930514001307AF
:103AE00007FD6377E60AB5CA3ECE85A897170000A2
:103AF0009387C7A26395F40083A4890025B797171D
:103B000000009387A79DE39FF4F083A4C90019BF29
:103B1000A6854E85EFF0CFF319D97D55FA406A445A
:103B2000DA444A49BA492A4A9A4A0A4BF65B665C21
:103B3000D65C0D618280050431BF330555413315D4
:103B4000AC00C98F3EC82289B1B7324793064700FF
:103B5000184336C6634707023ACE18209307E0029F
:103B6000631DF70418309307A002631BF702B247E6
:103B70000904138747009C433AC663C107023ECA43
:103B80002DA83307E04093E727003ACE3EC8F1B7AF
:103B9000B387670385462E84BA973DBFFD57C5B7E7
:103BA000050402CA81468147254618209305140062
:103BB000130707FD6374E606F9F20C200D4617158E
:103BC0000000130525985D2D11CD971700009387F0
:103BD00067971D8D93070004B397A700424505041E
:103BE0005D8D2AC80C201946171500001305C595D0
:103BF000130914002304B102512535C197C7FFFFF3
:103C00009387474095E74247B2471377071009CF9C
:103C100091073EC69257D2973ED225BDB387670320
:103C200085462E84BA9751B79D07E19BA107D5B76A
:103C3000780097060000938686D726860C084E8566
:103C400097000000E7000000FD572A8AE314F5FC06
:103C5000DE2493F70704E39207EC1255C1B5780010
:103C6000970600009386A6D426860C084E85012A66
:103C7000E1BF797156CA9C49BA8A984522D426D2A6
:103C80004ECE52CC06D64AD05AC85EC6AA892E84D9
:103C9000B284368A63D3E700BA879CC003473404F2
:103CA00019C385079CC01C4093F7070281C79C403D
:103CB00089079CC00329040013796900631A09006D
:103CC000130B9401FD5B5C449840998F634CF9049D
:103CD0001C408346340493F70702B336D000A5EBAB
:103CE00013063404D2854E85829AFD576303F5048A
:103CF0001C4011469840998B544481446397C700F7
:103D0000B384E64063D3040081441C4418486354E0
:103D1000F700998FBE94014969047D5B639824057F
:103D2000014509A885465A86D2854E85829A631E2A
:103D300075017D55B250225492540259F249624A9B
:103D4000D24A424BB24B456182800509ADBF330771
:103D5000D40013060003A301C70403475404938748
:103D60001600A2978906A381E7049DBF8546228697
:103D7000D2854E85829AE30E65FB050945B77971B8
:103D800022D426D24AD04ECE06D652CC56CA5AC8D3
:103D9000B689942D930790063289AA842E841386BF
:103DA0003504638DF60263E2D706930780056386C8
:103DB000F61863EDD700638E062093073004638EF8
:103DC000F60A930A24042301D404C9A093073006F9
:103DD0006385F60A93074006E395F6FE1C40084308
:103DE00093F6070893054500C5C61C410CC363D86C
:103DF00007001307D002B307F040A301E4049706BD
:103E000000009386E674294765A89307000763823C
:103E1000F61663E5D7029307E0066389F618930761
:103E2000F006E390F6FA0C401C4313F805081385DE
:103E300047006307080608C39C4385A893075007FB
:103E4000E383F6FE930780076389F6129307300732
:103E5000E399F6F61C43D04181459386470014C38D
:103E600083AA07005685192901C53305554148C065
:103E70005C401CC8A301040461A81C43930A2404E9
:103E8000938647009C4314C32301F4048547D5B7A8
:103E900093F607041C410CC3B9DAC207C18781BF7E
:103EA00093F5050408C3C9D99E231307F006638759
:103EB000E60E970600009386A6692947A30104042D
:103EC0004C400CC463C5050008406D9908C099E3D7
:103ED000B28A89CDB28AB3F5E702FD1AB6958C2174
:103EE0002380BA00B3D5E70263F0E70CA147631E55
:103EF000F7001C40858B91CB58401C4863C7E700F6
:103F000093070003A38FFAFEFD1A3306564110C82B
:103F10004E87CA867000A2852685EFF09FD57D5A10
:103F2000631D450B7D55B250225492540259F249FB
:103F3000624AD24A424B45618280A382D5049706E9
:103F400000009386E6600C40084313F805081C4106
:103F50001105630D080208C313F7150001C793E5A7
:103F600005020CC04147B9FB0C4093F5F5FD0CC0B0
:103F7000B1B79C4193E707029CC193078007A30256
:103F8000F404970600009386E65D75BF13F80504F8
:103F900008C3E30308FCC207C1837DBF9706000086
:103FA0009386065B214719BFAE8735B794411C4302
:103FB000CC4913F80608138547006306080008C3B8
:103FC0009C438CC339A008C393F606049C43F5DADE
:103FD0008EA323280400B28A25BF14485686CA85BA
:103FE00026858299E30045F51C40898B8DE7B24711
:103FF0004844E35AF5F23E853DB785465686CA8564
:1040000026858299E30065F3050A5C443247998F5F
:10401000E345FAFEE9BF014A930A94017D5BF5B7D7
:10402000011122CC06CE2A8409C91C4D99E732C65B
:104030002EC4EFF04FD63246A24597070000938773
:10404000E74B6316F60250401C46FD171CC663D0B2
:104050000704184E63C7E70093F7F50F29476398E5
:10406000E70222856244F24005616FF0AF92970744
:1040700000009387A74A6314F6001044F1B797072E
:1040800000009387A745E311F6FC504475BF1C421E
:1040900013F5F50F1387170018C28CA3F240624482
:1040A00005618280411122C42A842E8597F7FF1F63
:1040B00023A0077806C6EFE0BFEBFD576319F500B4
:1040C00097F7FF1F9387C7769C4391C31CC0B240EC
:1040D000224441018280411122C42E848395E5004F
:1040E00006C65D2A634905007C48AA977CC8B24091
:1040F0002244410182805E247D777D17F98F5EA482
:10410000FDB7DE25011122CC26CA4AC84EC606CE0E
:1041100093F70710AA842E843289B68991C78395B4
:10412000E500894601460D225E247D777D17F98FD3
:104130005EA48315E4006244F240CE864A86B2490A
:1041400042492685D244056125A8411122C42E8406
:104150008395E50006C6CD28FD575A24631AF5005D
:10416000FD77FD17F98F5EA4B240224441018280A1
:104170008567D98F5EA468C8C5BF8395E50025A86B
:10418000411122C42A842E85B285368697F7FF1FF7
:1041900023A0076A06C6EFE0DFD9FD576319F500D3
:1041A00097F7FF1F9387C7689C4391C31CC0B24019
:1041B000224441018280411122C42A842E8597F72E
:1041C000FF1F23A7076606C61122FD576319F500D6
:1041D00097F7FF1F9387C7659C4391C31CC0B240EC
:1041E000224441018280411122C42A842E85B28555
:1041F00097F7FF1F23AE076206C6CD20FD57631950
:10420000F50097F7FF1F9387A7629C4391C31CC0DB
:10421000B240224441018280411122C42A842E8569
:1042200097F7FF1F23A6076006C6C920FD5763192D
:10423000F50097F7FF1F9387A75F9C4391C31CC0AE
:10424000B240224441018280411122C42A842E8539
:10425000B285368697F7FF1F23AC075C06C6792820
:10426000FD576319F50097F7FF1F9387675C9C4321
:1042700091C31CC0B24022444101828093F5F50FE6
:104280002A966314C500014582801C21E38EB7FE87
:104290000505C5BF82808280411122C42A842E85F3
:1042A000B285368697F7FF1F23A4075806C6B9289C
:1042B000FD576319F50097F7FF1F938767579C43D6
:1042C00091C31CC0B2402244410182809307800503
:1042D00017F7FF1F232EF7547D5582809307800523
:1042E00017F7FF1F2326F7547D558280930780051B
:1042F00017F7FF1F232EF752014582809307800591
:1043000017F7FF1F2326F7527D55828093078005FC
:1043100017F7FF1F232EF7507D5582805478204DCC
:104320006F64650D0000000053656E64204661698E
:104330006C65640D0000000053656E642053756366
:10434000636573730D00000053656E6420446174EF
:10435000613A0D00253032780D0A000072656376EF
:10436000202564203E3E3E0A000000000A3C3C3C02
:104370000000000053797374656D436C6B3A2564DB
:104380000D0A00004368697049443A253038780DB9
:104390000A00000055534152542049646C65205274
:1043A0006563760D000000005631302E342E360045
:1043B0004672656552544F53204B65726E656C2092
:1043C00056657273696F6E3A25730D0A000000001E
:1043D00043414E5F5461736B0000000055415254DD
:1043E0005F5461736B0000002E2E2F46726565527C
:1043F000544F532F706F727461626C652F4D656DF1
:104400004D616E672F686561705F342E6300000038
:10441000657272206174206C696E65202564206F5E
:10442000662066696C6520222573222E200D0A20E5
:10443000000000002E2E2F4672656552544F532FF8
:10444000706F727461626C652F4743432F524953FA
:10445000432D562F706F72742E6300002E2E2F4640
:1044600072656552544F532F71756575652E6300E3
:104470002E2E2F4672656552544F532F7461736B05
:10448000732E630049444C4500000000722D00006B
:10449000722D0000B22D0000BE2D0000FE2D000088
:1044A000722D0000722D0000B22D0000BE2D000004
:1044B000546D7251000000002E2E2F467265655219
:1044C000544F532F74696D6572732E6300000000A2
:1044D000546D72205376630000000000000000005D
:1044E00000000000000000000000000000000000CC
:1044F00000000000000000000000000000000000BC
:1045000000000000000000000000000000000000AB
:10451000000000000000000000000000000000009B
:10452000000000000000000000000000000000008B
:104530000000000000000000232D302B20000000B0
:10454000686C4C0065666745464700003031323381
:10455000343536373839414243444546000000007F
:1045600030313233343536373839616263646566E9
:044570000000000047
:10457400000000000000000001020304060708090F
:1045840000000000010203040102030406070809F5
:1045940000000000F844000018450000D844000062
:1045A4000000000000000000000000000000000007
:1045B40000000000000000000000000000000000F7
:1045C40000000000000000000000000000000000E7
:1045D40000000000000000000000000000000000D7
:1045E40000000000000000000000000000000000C7
:1045F4000044950802040608AAAAAAAA0E0000000C
:10460400303800202000002000000120200000207D
:00000001FF
