:040000006F0050033A
:100004000000000000000000EE050000F005000004
:1000140000000000320800000000000000000000A2
:100024003208000032080000000000000000000058
:100034007C1B000000000000000200000000000023
:1000440032080000320800003208000032080000C4
:1000540032080000320800003208000032080000B4
:1000640032080000320800003208000032080000A4
:100074004440000032080000603E000032080000E6
:1000840032080000503F0000320800003038000001
:100094007638000032080000320800003208000000
:1000A4003208000032080000320800003208000064
:1000B4003208000032080000320800003208000054
:1000C4003208000032080000320800003208000044
:1000D40032080000B23D0000A23E0000963F00003E
:1000E4003208000032080000320800003208000024
:1000F4003208000032080000320800003208000014
:10010400000000003208000032080000320800003D
:100114008840000032080000320800003208000065
:1001240032080000320800003208000032080000E3
:10013400364100003208000032080000D6380000C2
:100144001C390000320800003208000032080000A8
:100154003208000032080000320800008641000026
:1001640032080000320800003208000032080000A3
:100174003208000032080000320800003208000093
:100184003208000032080000344200003208000047
:100194003208000032080000320800003208000073
:1001A400000000000000000000000000000000004B
:0C01B4000000000000000000000000003F
:10020000130181F806C216C41AC61EC822CA26CC1B
:100210002ACE2ED032D236D43AD63ED842DA46DC76
:100220004ADECEC0D2C2D6C4DAC6DEC8E2CAE6CC46
:10023000EACEEED0F2D2F6D4FAD6FED8F3220030CF
:1002400096DA9702002083A262EE23A02200F32513
:1002500010342EC09305000273A0458003A1818154
:10026000EF20901A17030020032343EC032103001F
:10027000824273901234D652739002309240A2425E
:100280003243C2435244E244724582551256A2564A
:100290003257C2575258E25872598649164AA64AEE
:1002A000364BC64B564CE64C764D865D165EA65ECA
:1002B000365FC65F13018107730020301300000012
:1002C00013000000130000001300000013000000E2
:1002D00013000000130000001300000013000000D2
:1002E00013000000130000001300000013000000C2
:1002F00013000000130000001300000013000000B2
:1003000083A28181938202E073900234170100205E
:100310000321C1E1024182403243C2435244E244DC
:10032000724582551256A2563257C2575258E25859
:1003300072598649164AA64A364BC64B564CE64C6D
:10034000764D865D165EA65E365FC65FD652A1020A
:1003500073900230A24213018107828013000000D3
:100360001300000013000000130000001300000041
:100370001300000013000000130000001300000031
:100380001300000013000000130000001300000021
:100390001300000013000000130000001300000011
:1003A0001300000013000000130000001300000001
:1003B00013000000130000001300000013000000F1
:1003C00013000000130000001300000013000000E1
:1003D00013000000130000001300000013000000D1
:1003E00013000000130000001300000013000000C1
:1003F00013000000130000001300000013000000B1
:10040000F322003093F272FF130380781203B3E2F9
:100410006200711523205500130585FA10C12115BE
:10042000232005009302000063870200711523203A
:100430000500FD12D5BF71150CC1828000000000BF
:1004400000000000000000000000000000000000AC
:10045000000000000000000000000000000000009C
:10046000000000000000000000000000000000008C
:10047000000000000000000000000000000000007C
:10048000000000000000000000000000000000006C
:10049000000000000000000000000000000000005C
:1004A000000000000000000000000000000000004C
:1004B000000000000000000000000000000000003C
:1004C000000000000000000000000000000000002C
:1004D000000000000000000000000000000000001C
:1004E000000000000000397101436EC619A0397187
:1004F00041536AC866CA62CC5ECE19A039710153F5
:100500005AD056D252D44ED64AD826DA22DC06DE4B
:1005100033016140828241114AC026C222C406C60C
:100520008282B24D4101024D924C224CB24B4101AC
:10053000024B924A224AB249410102499244224462
:10054000B240410182803D432A876373C30293779F
:10055000F700BDEFADE5937606FF3D8ABA960CC372
:100560004CC30CC74CC74107E36BD7FE11E2828036
:10057000B306C3408A069702000096966780A600DD
:100580002307B700A306B7002306B700A305B700EB
:100590002305B700A304B7002304B700A303B700E3
:1005A0002303B700A302B7002302B700A301B700DB
:1005B0002301B700A300B7002300B700828093F5A2
:1005C000F50F93968500D58D93960501D58D61B76E
:1005D000939627009702000096968682E78086FA17
:1005E0009680C1171D8F3E96E374C3F8A5B701A08E
:1005F000B707EFBE37E700E0938707083CC701A0C5
:10060000EFF27FF1EF00905C014505BFB7170240A4
:100610009843B706FFF041111367170098C3D843FA
:1006200037060200758FD8C39843B706F7FEFD164C
:10063000758F98C39843B706FCFFFD16758F98C356
:10064000D843B70601FFFD16758FD8C39843B70688
:1006500000ECFD16758F98C33707FF0098C723A6D7
:10066000070202C402C69843C166558F98C3B716E5
:10067000024005679C42F18F3EC6A24785073EC4F3
:10068000B24781E7A247E397E7FEB71702409C43D2
:100690001397E7006356070685473EC632478547EE
:1006A000631EF704B7170240D843B706C1FFFD1613
:1006B000D8C3D843D8C3D84313670740D8C3D84357
:1006C000758FD8C3D843C166558FD8C39843B70632
:1006D0000001558F98C3984393166700E3DD06FE2B
:1006E000D843B7160240719BD8C3D843136727007D
:1006F000D8C32147DC42B18BE39EE7FE41018280F3
:1007000002C669BFB7160240D842B707002011469B
:10071000318B938707086305C70021466308C7022A
:1007200037177A001307072098C33717024058433A
:1007300011839376F70037070020130707003697D9
:10074000142398433357D70098C38280D842D442A9
:10075000416649833D8BF18E1306270015CF3D4737
:10076000630FE6024147630FE60245478145631385
:10077000E6004146A1E23747024003270780418B4C
:100780000DC737177A00130707203306C70290C337
:10079000C9DD9843058349BF81454946E1BF854589
:1007A0003546C9BF81453D46F1B737173D001307B0
:1007B0000790E1BF3715024058559316F70058557A
:1007C00063DF060411833D8B9306170037177A0009
:1007D000130707203357D70298C35455A182BD8A07
:1007E0008DE295463307D702058398C33717024039
:1007F000585794433D8B050733D7E60298C3984377
:1008000069B705456394A600E546E9BF3D45639693
:10081000A600D1463387E602C9BF8906E5BF3D8BF6
:100820009306170037177A00130707203357D702AC
:10083000F1B701A0970100209381C10417F10020B6
:100840001301417C17550000130545E697F5FF1F7E
:100850009385457B1386018263FAC50083220500D8
:1008600023A0550011059105E3EAC5FE17050020F8
:100870001305458397B50020938545076377B50039
:10088000232005001105E36DB5FEFD42739002BC07
:10089000FD4273904280B782000093820280739081
:1008A000023097F2FFFF9382227693E23200739038
:1008B0005230EFF0BFD5970200009382A2D473901C
:1008C0001234730020301841AA87759B18C1184153
:1008D0001367170018C14167D443858A99E27D17D1
:1008E00065FFD8430145058B49CF94450547639B78
:1008F000E608984313670708D44598C305476397EC
:10090000E608984313670704944998C3054763931F
:10091000E608984313670702D44998C30547639FC5
:10092000E606984313670701944D98C30547639AF9
:10093000E606984313678700D44D98C3054763952F
:10094000E60698431367470098C3B821B4317A0785
:10095000E206558FD421C206558FD431D206558F69
:100960009621FD16558FD8CF9843799B98C3416740
:10097000D443858A99C27D1765FFC8431345F5FFA7
:100980000589828098431377F7F7BDB798431377AB
:10099000F7FB9DBF98431377F7FDBDBF98433D9B81
:1009A00061B798435D9B49BF98436D9B71BF3767A3
:1009B000004013070740832607203C25054893E69F
:1009C00016002320D7208325C7213316F80093462D
:1009D000F6FFF58D232EB7204C25BDED8325C720CE
:1009E000035825008E07F58D2326B7206E21BA9770
:1009F0005A21C205B3E5050123A0B7240E21420701
:100A00004D8F23A2E7243835B7670040938707400E
:100A10002DEB03A74720758F23A2E7201A25B76780
:100A200000409387074035E303A74721F98E23AAA7
:100A3000D720184985476319F700B767004003A717
:100A4000C761598E23AEC760B767004003A7076030
:100A5000799B23A0E7608280E39705FB8325C7206D
:100A6000035825008E07D18D2326B7200E21BA9773
:100A70005A21C205B3E5050123A0B72442076E2120
:100A800041B703A74720518F41BF8546E313D7FAEB
:100A900003A74721518F23AAE72061BF1C45139765
:100AA0005700634E07081C4513974700634B070820
:100AB0001C45914613973700635107088946939761
:100AC0004600AA9703A70718058B23A0E7189025CF
:100AD000883535EA984103A607185607498F518F84
:100AE00023A0E718B8253D8BB8A503A64718419A5F
:100AF00023A2C71803A64718518F23A2E718D025B1
:100B0000B8352206598ED8354207598EF825620726
:100B1000518F23A4E7189029F8352206598E983969
:100B20004207598EB8296207518F23A6E71803A7F9
:100B300007181367170023A0E718368582808146BF
:100B4000BDBF8546ADBFD84103A807180E07498F22
:100B5000518F3367070169B793974500AA9703A799
:100B6000071B118B18A62DE703A7071B558318C277
:100B700003A7071B098B18B603A7471B3D8B38A695
:100B800003A7471B218338BA03A7871B38B603A7DF
:100B9000871B218358A603A7871B418358B603A749
:100BA000871B618378A603A7C71B78B603A7C71B5B
:100BB000218318AA03A7C71B418318BA83A7C71BA1
:100BC000E1833CAA99E95C4593E707025CC5828012
:100BD00003A7071B0D8358C261BF1C4993E7070297
:100BE0001CC982805C4901C6DD8D4CC9828093C5D9
:100BF000F5FFFD8DDDBF5C49ED8F95C393070004C4
:100C00006383F50A63ECB70291476386F50863EAEC
:100C1000B70085476386F5068947638BF50601456E
:100C20008280C147638DF50693070002638BF5064A
:100C3000A147E396F5FE4845118185A0938705807D
:100C4000BDCF85679387078063E0B70293070020D5
:100C50006381F506930700406380F5069307001053
:100C6000E39FF5FA084D15A8C1676380F504B7073F
:100C70000200638EF502A167E393F5FA484135A8B7
:100C80000845C167938717107D8D3335A00082809A
:100C900048450D89DDBF48450D8105898280084999
:100CA000CDBF0849D5BF084941BF4841F5B74841C4
:100CB00061B7084D0581D5B7084D0981F9BF084DC9
:100CC00013750507D9B7930700106386F50663E728
:100CD000B702A1476388F50663E9B7000547638E4D
:100CE000E50411476381E506828013070002638FE4
:100CF000E50493070004638AF504828093870580E6
:100D00008DCB85679387078063EBB700930700203F
:100D10006383F50293070040638FF5008280C1670B
:100D20006388F502B70702006387F502A167639342
:100D3000F502232C0500914729A8C1679387171056
:100D40001CC58280C1475CC58280C1471CC98280A6
:100D5000A1475CC18280C147EDBF1C414167791743
:100D6000F98F1CC123200500232205002324050040
:100D7000B707024023260500138787006317E500A5
:100D8000D8431367F700D8C382801387C70163165F
:100D9000E500D8431367070FFDB7138707036318F0
:100DA000E500D8438566938606F0558FE9BF138723
:100DB00047046315E500D843BD66C5BF13878705A3
:100DC0006316E500D843B7060F00C5B71387C706FB
:100DD0006316E500D843B706F000C1BF13870708C4
:100DE0006316E500D843B706000FC1B713878740E5
:100DF0006319E50003A747401367F70023A2E74004
:100E000082801387C7416317E50003A74740136734
:100E1000070FEDB793870743631BF500B707024041
:100E200003A747408566938606F0558FC1BFB70775
:100E30000240138747446316E50003A74740BD6699
:100E4000EDB7138787456317E50003A74740B7064B
:100E50000F00E1BF1387C7466317E50003A74740AC
:100E6000B706F000D9B7138707486317E50003A753
:100E70004740B706000F55BF138707496319E500C0
:100E800003A7474D1367F70023AAE74C8280138717
:100E9000074A6317E50003A7474D1367070FEDB730
:100EA0001387074B6319E50003A7474D85669386B3
:100EB00006F0558FD1BF1387074CE319E5FC03A754
:100EC000474DBD66FDB71C4161773D0794517D8F4D
:100ED0009C45D58F9449D58FD449D58F944DD58FC6
:100EE000D44DD58FD451D58F9455D58FD98F1CC162
:100EF000DC455CC19C411CC5DC415CC582801C4159
:100F000089C593E717001CC1828041677917F98F63
:100F1000DDBF1C4101C6DD8D0CC1828093C5F5FF8C
:100F2000FD8DDDBF4CC182804841420541818280F8
:100F30009317350063DA0700B707024083A707401D
:100F40007D8D3335A00082809317250063D707007D
:100F5000B707024083A7074DE5B7B70702409C4398
:100F6000C5B79317350063D70700B707024023A220
:100F7000A74082809317250063D70700B707024078
:100F800023AAA74C8280B7070240C8C38280EFF231
:100F90008FD8793F6FF06FDAEFF2EFD7D9376FF074
:100FA000CFD99C4513F7070113F8F70001C7D841C3
:100FB0003368E8008E2113F7F50F39C318418146D5
:100FC000854E3D4F930F800293028004214E33964D
:100FD000DE00B3F8C500631116039398260033139F
:100FE0001F011343F3FF3377E300B318180133E70E
:100FF000E800639FF70550C98506E39AC6FD18C14E
:101000001307F00F6375B70454412146854E3D4FD9
:10101000930F800293028004414EB398CE0033F7C1
:1010200015016392E8021317260001173313EF002E
:101030001343F3FFB376D3003317E800D98E639DD3
:10104000F701232A15010506E319C6FD54C1828064
:10105000E39457FA10C94DB7E39757FE23281501BB
:10106000DDB74CC98280B707002023A0A70A828081
:10107000B707002003A7070A894710216311F70269
:1010800014318D4763EDD7003C219A0637E700E025
:101090009607D58F93F7F70F32972300F740544107
:1010A0000547935756003317C70089CA938707042B
:1010B0008A07B7E600E0B69798C382809387070651
:1010C000C5BF371702405C439146B18B6385D7009B
:1010D000A1466382D706B7177A00938707201CC101
:1010E000371602405C42370700201307070191833F
:1010F000BD8BBA9794231C41B3D7D7005CC154422F
:10110000A1829D8ABA969422B3D6D70014C55442C0
:10111000AD829D8A36971823B3D7E7005CC5584245
:101120003983937637001387418036971823B3D7D6
:10113000E7021CC982805C435843C166C983758F2E
:10114000B7F6FF1F83A6C670BD8B890713961601DD
:1011500063480600C54601466392D702C94739A8CD
:101160008946638FD702BD46638ED702C146638E20
:10117000D702C54601466393D700C1471DEF3747E5
:10118000024003270780418B05C737177A001307F2
:101190000720B307F7021CC121D61C41858381B704
:1011A00001466DBF0546B547D1BF0146BD47F9B7FA
:1011B00037173D0013070790E9BFB7150240D85510
:1011C0009316F700D85563DF060411833D8B930611
:1011D000170037177A00130707203357D70218C1B3
:1011E000D455A182BD8A8DE295463307D702058387
:1011F00018C137170240585714413D8B050733D7A4
:10120000E60218C1184171B785456394B600E546FA
:10121000E9BFBD456396B600D1463387E602C9BF34
:101220008906E5BF3D8B9306170037177A00130731
:1012300007203357D702F1B799C5371702405C4BE7
:101240005D8D48CB8280B7170240D84B1345F5FF20
:10125000798DC8CB828099C5371702401C4F5D8DB0
:1012600008CF8280B7170240984F1345F5FF798D5C
:1012700088CF828099C5371702405C4F5D8D48CF7B
:101280008280B7170240D84F1345F5FF798DC8CF3C
:101290008280EFF24FA81629F577FD17F58FF6211A
:1012A000DA257971D58F1EA95625FD779387379F4B
:1012B000F58FD6212A842EC6D58F9625D58FB625B3
:1012C000D58F5EA55E29C207C18393F7F7CFD98F6B
:1012D0005EA96808FD33B747014093870780B24590
:1012E000631EF402A2576547B387E702984193064D
:1012F00040060A07B3D7E70233D7D702B3F7D702BE
:101300001207920793872703B3D7D702BD8BD98FD4
:10131000C207C1831EA445616FF02FA29257E1B7A7
:1013200091C55E250967D98F5EA582805A25F97718
:10133000FD17F98FD5BF13F7F50F85471583B395C3
:10134000B7006319F7009307C500984301CED98D04
:101350008CC38280894693074501E318D7FE930723
:101360000501E5B793C5F5FFF98DDDB75E2901C627
:10137000DD8D4EA9828093C5F5FFFD8DDDBF93F510
:10138000F51F4EA182800A216D8D3335A000828029
:1013900013F7F50F85461583B397B6006311D7028F
:1013A0005A25F98F1A2101454207418381CB054512
:1013B000A181B315B5006D8F3335E0008280894679
:1013C0006314D7001A29F1BF5A29E1BFEFF2AF9495
:1013D00009455139EFF00FB3EF20001AE528716588
:1013E00013050520EF20601CEF20A028EF204036D9
:1013F000EF20C058EF20006EEF209003B7070020C9
:10140000B7550000371500009387870A11478146BA
:10141000130600109385454713054575EF10201BF3
:10142000B7070020B7550000371500009387470C19
:101430001147814613060010938545481305257909
:10144000EF10E018B7070020B7550000371500006F
:101450009387870B11478146130600109385C54972
:101460001305E56BEF10A016B7070020B755000075
:10147000371500009387070B1547814613060010A8
:101480009385C54A1305A568EF106014B7070020BF
:10149000B7550000371500009387870C1147814628
:1014A000130600109385C54B1305C571EF1020126C
:1014B000EF1080336FF06F88EFF2EF853755000043
:1014C0001305054DEF209066A16793870780739001
:1014D000073001A0EFF22F84014693052010294523
:1014E000EF005018B707002023A6A70C014693056C
:1014F00020102945EF001017B707002023ACA70CD8
:101500000146930520102945EF00D015B7070020AC
:1015100023A2A70E0146930520102945EF00901441
:10152000B707002023A8A70E0146930520102945E0
:10153000EF005013B707002023AEA70E0146930516
:1015400020042945EF001012B707002023AAA70C9A
:101550000146930520042945EF00D010B70700206D
:1015600023A0A70E0146930520042945EF00900F04
:10157000B707002023A6A70E01469305200429459E
:10158000EF00500EB707002023ACA70E01469305CD
:1015900020042945EF00100DB707002023A2A71053
:1015A0000146D1455145EF00F00BB707002023A2BB
:1015B000A70A0146D1455145EF00D00AB7070020E0
:1015C00023A6A70A0146D1455145EF00B009B70748
:1015D000002023AAA70A0146D1455145EF009008F3
:1015E000B707002023AEA70A0146E1452945EF00D1
:1015F0007007B707002023A0A70C0D4681450545BD
:10160000EF005006B707002081460146814523A818
:10161000A70CEF00500C0D4681450545EF009004E6
:10162000B707002081460146814523AEA70CEF0095
:10163000900A0D4681450545EF00D002B70700200E
:1016400081460146814523A4A70EEF00D0080D4630
:1016500081450545EF001001B7070020814601468E
:10166000814523AAA70EEF0010070D4681450545C9
:10167000EF00407FB707002081460146814523A047
:10168000A710EF0050056FE05FEBEFE2DFE801111C
:10169000B704002005493754000003A5440B7D56CC
:1016A0006C00EF00B03EE31A25FF8346810103463C
:1016B0007101B2451305C44EEF205047F9BFEFE268
:1016C000FFE3377400400111B704002005491304FB
:1016D0000480914903A5C40B7D566C00EF00103BBC
:1016E000E31A25FF6C002285EFF04FBBE31435FFB2
:1016F0007D5685450145EF10F015EDB711CDEFE2B0
:101700009FE1B70700202E86AA8503A5C70B814657
:10171000EF00607C6FE07FE201458280EFE2BFDF97
:10172000011113092013A1443754000021469305E9
:101730004451130571014AC6231A0100230B91007D
:10174000EF20B033A9456800553F1305803EEF10E8
:101750006045E9BFEFE29FDA376400400111B7044A
:101760000020054913040440914903A5C40A7D568D
:101770006C00EF00B031E31A25FF6C002285EFF01A
:10178000EFB1E31435FF7D5685450145EF10900C10
:10179000EDB7EFE2DFD57971370C0020B7040020F8
:1017A000054403A5040C7D562C08EF00302EE31AE7
:1017B00085FE2008228A93090010914C032B040017
:1017C000835A0A01631B0B00938909109307005089
:1017D0001104090AE394F9FED1B7E3870AFE01492F
:1017E0008144214DE3F254FF02C6B307390102C21E
:1017F00002C802CA3EC42306910133869A4063534D
:10180000CD002146937BF60FB3059B005E86130542
:10181000F10023077101EF2050260325CC0ADE9446
:10182000814629464C00C20405097525C1801379FB
:10183000F90F4DBFB7070020938707129843636FD6
:10184000A702D043B386C7006316D50054413E8536
:10185000B296D4C35041B306C500631CD700B70687
:10186000002083A686106306D70054431843B2961F
:1018700054C118C16303F50088C38280BA877DBF55
:10188000EFE2DFC741112AC6EF00107FB706002044
:1018900083A7861037060020938686101306C6108D
:1018A0003245A1EF370700209307471893F5F7005B
:1018B0001307471881C51387F700419BB705002020
:1018C0009385051223A2050098C1A965C115AE979D
:1018D000C19B23A2070023A00700B385E7409CC259
:1018E0001CC3B707002023AAB710B707002023A8FE
:1018F000B710B70700804CC31CC2032A0600B37799
:10190000AA0085E39307F5FF3957636CF700930747
:10191000050113F7F70041C313F707FF410763EB16
:10192000E706814489A022872E8461A058C15CC04B
:1019300011375840B7060020938646119042B307EE
:10194000E94023A0F90063F3C7009CC2B707002059
:101950003367EA009387871158C09843C104232056
:101960000400050798C3EF10800D93F7F400D1CB66
:10197000A16793870780739007303756000037556B
:1019800000001306C6519305001113054554EF20BE
:10199000F01901A0BA87370700200329071193091E
:1019A0000711E360F9F83707002003240712130733
:1019B000071250406374F6000C40B5F59442E38280
:1019C00086F61440044314C33307F640930600021E
:1019D000E3F1E6F63305F4009376F500A1DAA167AA
:1019E0009387078073900730375600003755000003
:1019F0001306C6519305F00C13054554EF20101340
:101A000001A0268541016FE0BFB255C1EFE2BFB032
:101A1000B7070020032745FF83A7C7102A84B376A2
:101A2000F7009DE2A16793870780739007303756D0
:101A30000000375500001306C651930540121305E8
:101A40004554EF20B00E01A0832605FF9DC2A1677B
:101A50009387078073900730375600003755000092
:101A60001306C6519305501213054554EF20100C70
:101A700001A093C7F7FFF98F232AF5FEEF00D05F8F
:101A8000B7070020938707119443032744FF1305EA
:101A900004FF369798C3793BB70700209387C71197
:101AA0009843050798C3EF0090796FE01FA98280E3
:101AB000B7E700E041572387E7402386E740B7F7C1
:101AC00000E023A0070023A20700814694C7014736
:101AD000D8C737070020832507081307803E8146B3
:101AE00033D6E5023D4790CBD4CB98C38280EFE25A
:101AF0009FA2411102C6F32750303EC6B2470D47A0
:101B00008D8B6384E702A16793870780739007300A
:101B10003756000037550000130686569305600BB4
:101B200013054554EF20900001A0B70701209387CB
:101B30000700BD8B9DC3A167938707807390073013
:101B40003756000037550000130686569305B00B34
:101B500013054554EF20807D01A0993FB7E700E0D1
:101B6000056723A0E710116723A0E71023A40180D5
:101B7000EFE00FF9014541016FE03F9C7311013423
:101B8000A1679387078073900730B7F700E023A21F
:101B90000700EF00105011C5B7E700E0116723A060
:101BA000E720A1679387878873900730731101340A
:101BB00073002030A1679387078073900730938765
:101BC00081809843050798C38280138781801C43D6
:101BD0008DE7EFE25F94A1679387078073900730EA
:101BE000375600003755000013068656930520101F
:101BF00013054554EF20807301A0FD171CC391E726
:101C0000A1679387878873900730828021651305C9
:101C1000058073150530828073100530828093072C
:101C200085007D575CC118C55CC51CC92320050013
:101C300082802328050082809841FD569307850005
:101C4000631ED7001C49D843D8C10CC79CC5CCC360
:101C50001C4188C985071CC18280B687D443904245
:101C6000E37DC7FECDB7544118451C4998C654C3FF
:101C7000D4436393A600D8C39843232805007D1757
:101C800098C388438280EFE21F8941112AC61D371D
:101C90003245005D1D3F1335140041016FE0FF899F
:101CA000EFE27F8732893041045D2A8409EE1C41CE
:101CB000014591E70844EF10402D232404008504DA
:101CC00004DC6FE09F87631009024841EF20E05A6F
:101CD0005C4038400145BA9718445CC0E3E1E7FE38
:101CE0001C405CC0E9BF4845EF2020593C405844A7
:101CF0001440B307F0403E9758C46375D7001844AA
:101D0000BA975CC489470145E31BF9FACDD8FD14A5
:101D10007DB7304115C2EFE21F8058451445AA87B0
:101D2000329758C56364D700184158C52E85CC47F3
:101D3000EF20A0546FE07F808280EFE2CFFD2A8405
:101D4000953D8344540413094402E204E18463454D
:101D50009002FD57A302F4048D3DA93D8344440441
:101D600013090401E204E18463449002FD57230255
:101D7000F404A13D6FE06FFC5C50E1DF4A85EF1099
:101D8000A00119C1EF10E01DFD14E204E184C1B708
:101D90001C48E9DF4A85EF10200019C1EF10601CD4
:101DA000FD14E204E184C9B7EFE2EFF641111DE151
:101DB000A167938707807390073037560000375527
:101DC0000000130606599305001113054554EF2032
:101DD000E05501A05C5D2EC62A84BDC33841B3B76F
:101DE000E702B9EFC13B3040585C1440232C040299
:101DF000B307E602B24554C03387F600918FB69719
:101E00005CC4FD572302F40418C4A302F40495E152
:101E10001C4899CB13050401EF00107811C5B7E7F2
:101E200000E0116723A0E7204D33054541016FE035
:101E3000CFF013050401E53313054402CD33EDB7AC
:101E4000A167938707807390073037560000375596
:101E50000000130606599305501413054554EF204E
:101E6000E04C01A0EFE22FEB411121C5B3B7A50271
:101E7000AA84A1E33305B5029307F0FA63EBA70246
:101E80001305050532892EC6EFF09F9F2A8411CDD8
:101E9000B245AA8799C1930705052CC01CC044DC34
:101EA00085452285113723062405228541016FE0EF
:101EB000CFE8A167938707807390073037560000FB
:101EC00037550000130606599305601C1305455449
:101ED000EF20C04501A0EFE28FE1011132C61DE104
:101EE000A1679387078073900730375600003755F6
:101EF0000000130606599305E03213054554EF2000
:101F0000E04201A02A842E89B6848DE53C419DC320
:101F1000A1679387078073900730375600003755C5
:101F20000000130606599305F03213054554EF20BF
:101F3000E03F01A089476398F402585C8547630439
:101F4000F702A16793870780739007303756000028
:101F50003755000013060659930500331305455401
:101F6000EF20C03C01A0EF10800015E5B247014C06
:101F700085C7A167938707807390073037560000A5
:101F800037550000130606599305303313054554A1
:101F9000EF20C03901A0014C094BFD59930B0401FE
:101FA00037EA00E0916AADA0B24781E739390145CF
:101FB00049A863150C002808EF00D06C3931EF00F8
:101FC000B00BCD3E83474404E207E18763943701B9
:101FD0002302040483475404E207E1876394370132
:101FE000A3020404DD366C002808EF00106B35E511
:101FF000D136185C5C5C6319F704C13EB2455E855E
:10200000EF00B04D2285153BEF00702321C5054C34
:102010005536185C5C5C6364F700E39764F92686C8
:10202000CA852285B5395C5089C713054402EF0083
:10203000B05611C5B7E700E0116723A0E72071365D
:10204000054505616FE02FCE49362285FD31EF0051
:10205000101F75BF23205A215DBF2285F939EF007B
:10206000101EB1B7EFE28FC941111DE1A16793873F
:10207000078073900730375600003755000013066D
:1020800006599305204013054554EF20202A01A04E
:102090002A84B2898DE53C419DC3A167938707805F
:1020A0007390073037560000375500001306065965
:1020B0009305304013054554EF20402701A0894780
:1020C0006398F602585C85476304F702A16793871B
:1020D000078073900730375600003755000013060D
:1020E00006599305404013054554EF20202401A0D4
:1020F00036C62EC4213E185C5C5C2A8AA245B246D4
:102100006366F700894781446392F602834454046E
:102110001C5C3686228513998401593613598941EE
:10212000FD576317F9025C5089EB85445285EFF047
:10213000BFAE268541016FE0AFBF13054402EF003B
:10214000B04565D5E38309FE854723A0F900F1BFBB
:102150009307F0076314F902A167938707807390D0
:10216000073037560000375500001306065993050F
:10217000D04813054554EF20601B01A08504E204FC
:10218000E184A302940455B7EFE2EFB81DE1A16723
:10219000938707807390073037560000375500004B
:1021A000130606599305D04A13054554EF2000182D
:1021B00001A03C412A849DC3A16793870780739047
:1021C00007303756000037550000130606599305AF
:1021D000104B13054554EF20601501A01C41AE843F
:1021E0008DE71C459DC3A1679387078073900730D7
:1021F0003756000037550000130606599305604B0B
:1022000013054554EF20801201A0EFF03FA0185CA9
:102210005C5C2A89637AF70683475404050718DC57
:1022200093968701E1867D576394E6025C5081EBCB
:1022300005444A85EFF05F9E22856FE00FB01305DD
:102240004402EF0070356DD5E5D485479CC0CDB70D
:102250001307F0076394E602A167938707807390E2
:10226000073037560000375500001306065993050E
:10227000505313054554EF20600B01A08507E2077A
:10228000E187A302F4046DB7014465B7EFE22FA61E
:10229000011132C61DE1A167938707807390073053
:1022A00037560000375500001306065993051055A0
:1022B00013054554EF20800701A02A84AE898DE5DF
:1022C0003C419DC3A16793870780739007303756C1
:1022D00000003755000013060659930550551305A5
:1022E0004554EF20A00401A0EF00704815E5B24767
:1022F000014985C7A16793870780739007303756D8
:10230000000037550000130606599305A055130524
:102310004554EF20A00101A001497D5A930A4402CF
:1023200037EB00E0916B85A8B24789E7EFF0FF89B2
:10233000014559A8631509002808EF00B034EFF0F3
:10234000DF881D2BEFF01F8783474404E207E187F6
:10235000639447012302040483475404E207E1879E
:1023600063944701A3020404EFF03F866C00280841
:10237000EF00B03235E12285EFF0FF9029C9B24578
:102380005685EF0090152285EFF03F9B4D2D19E10A
:1023900023207B210549EFF0FF81045CD1D4CE8559
:1023A0002285FD14EFF0FF9604DC1C4899CB130541
:1023B0000401EF00701E11C5B7E700E0116723A00C
:1023C000E720EFF09F80054505616FE0CF952285FE
:1023D000EFF0BF96AD257DBF2285EFF01F968525D6
:1023E0002285EFF05F8A5DD5A1B715E5EFE2AF92E8
:1023F000A167938707807390073037560000856583
:102400003755000013060659938585AC13054554CE
:10241000EF10D07101A09DCD37A60020930646187D
:102420008147014713064618214883A84600639850
:10243000A80093173700B2978CC3C8C321A891E7AF
:1024400083A8060063930800B6870507A106E31E6C
:1024500007FDFDF38280EFE20F8C41112A842EC626
:1024600032C4EFF02FF5834744047D572246E2073C
:10247000E187B2456394E7002302040483475404D0
:102480007D57E207E1876394E700A302040432C6A4
:102490002EC4EFF08FF31C5CA245324689E713058A
:1024A0004402EF0010082285EFF03F8941016FE000
:1024B000CF88370700201307C7121C439443B70780
:1024C00000209387C71481E67D5798C38280184304
:1024D00058471843DDBFEFE26F8237090020B70786
:1024E00000209304891283A9C7152A849C40884040
:1024F0004111A38C070411052EC6EFF0CFF67D57CE
:1025000093078912B245631CE40295C9B7A700205E
:102510009387C7329440D84398C610479440D0C69A
:1025200094401047910654C29440910614C79840B5
:102530005CCB9843050798C341016FD07FFF984358
:102540004E9440C3637B34013707002003250713F3
:102550008C439105EFF04FEEC5B7370700200325F8
:10256000C7128C439105EFF02FEDB707002093873A
:10257000C7149843E372E4FC80C37DBFEFD21FF819
:1025800037A40020B709002013040434370A0020C0
:10259000938489139C40EDDFEFF0CFE15C4403A905
:1025A000C70013054900EFF00FEC13074A131C4353
:1025B000FD171CC39C40FD179CC0EFF00FE10325E5
:1025C0000903EFF08FC44A85EFF02FC4D1B7EFD2E3
:1025D0001FF2931426002A8B26852E8AB68B3A8901
:1025E000BE8AEFF0EFA905CDAA891305C005EFF06B
:1025F0002FA92A8415C12328350326864E859305E5
:10260000500AEFD05FF4814783290403C146631A5F
:102610000A00230A040225A04E85EFF00FBF7D5566
:1026200075A23307FA00030707003306F400230AF4
:10263000E60201C78507E396D7FEA3010404B94764
:1026400063F42703A1679387078073900730375699
:102650000000375500001306465A930570391305DC
:102660004554EF10B04C01A0130A44002326240364
:1026700023262405528523280404EFF08FDB13055D
:102680008401EFF00FDBBD47F11433892741CE946D
:1026900000C8232C240140D0230A0404A30A040404
:1026A000230B0404A30B0404230C0404A30C040450
:1026B0005E86DA8513F504FFEFD09FD408C06384EB
:1026C0000A0023A08A00EFF0EFCEB707002093871F
:1026D00047139843B7040020B7A90020050798C303
:1026E000138784121843938484121389491C63113D
:1026F000070E80C0984385476316F7069389491CE7
:10270000930AC9124E85D109EFF06FD1E39C3AFFCD
:1027100037A50020930A052F1305052FEFF02FD0C2
:1027200037A500209309453013054530EFF02FCF32
:1027300037A5002013058531EFF06FCE37A50020B7
:1027400013050534EFF0AFCD37A500201305C532D2
:10275000EFF0EFCCB707002023A65713B7070020F0
:1027600023A8371337070020130707141C438507D6
:102770001CC337070020130747147CC014435C5464
:1027800063F3F6001CC35147B387E702CA97D843E7
:10279000144718C454C4144723A2460123244701F4
:1027A00098435CC8050798C3EFF02FC2B707002015
:1027B00083A78715054599CB9C40D8575C54637710
:1027C000F700B7E700E0116723A0E7206FD0BFD57F
:1027D000B707002083A78715D1F79C40D8575C54D2
:1027E000E3E2E7F880C0BDBFEFD2FFD2B707002019
:1027F000B7550000372500009387871401478146AD
:10280000130600089385855B1305C557C933054436
:10281000631E8502EF005050631A8502A1679387FB
:10282000078073900730B70700207D5723A6E71471
:10283000B707002023ACA714B707002023AE071466
:10284000EFF0EFAA83A7C1806FD03FCFFD57E31B06
:10285000F5FEA16793870780739007303756000015
:102860008565375500001306465A93850584130580
:102870004554EF10B02B01A0B70700209387C71372
:102880009843050798C38280B707002003A5C715A2
:102890008280B707002083A7C71363990718EFD278
:1028A0009FC7B70700209387C7158043050480C3DF
:1028B00021ECB70700209387C7129843184305C738
:1028C000A1679387078073900730375600008565AE
:1028D000375500001306465A938575AC13054554C9
:1028E000EF10D02401A037070020130707139443EB
:1028F000104390C3B707002014C39387071598436C
:10290000050798C3EFF0FFBA370600209307C614F7
:102910009C4337A70020B70500201306C6141307F1
:10292000471C9385851201456375F4029C41D1468D
:10293000DC57B387D7023E971843854763F3E70018
:102940000545B707002083A7071691C305456FD03B
:10295000DFBE370E0020B70E0020514F9307CE1276
:102960009443944281E6FD571CC2C9B79C43DC479F
:10297000DC47D4436374D40014C24DBF83A88700DE
:1029800003A8C700D44B1383470023A408012322C4
:10299000180183A846006394680023A2060103A8D7
:1029A000060023AA07007D1823A00601945795CAA4
:1029B00003A8C70183A8070283AF46002324180198
:1029C00083A8070223A208011388870163940F01DB
:1029D00023A2160103A8060023A407027D1823A042
:1029E000060193864E1403A8C70283A8060063F469
:1029F000080123A00601B306E803BA9683A846009F
:102A000083AF880023A4170123A6F70183AF8800B2
:102A100023A26F0023A46800D4CB9C4285079CC2EC
:102A20009C41DC57E36CF8F205450DBFB707002069
:102A30009387471598430145050798C38280EFD2D5
:102A4000FFAB370400201304C4131C40411185E779
:102A5000A16793870780739007303756000085651C
:102A6000375500001306465A9385358B1305455498
:102A7000EF10D00B01A0EFF0EF931C40FD171CC02E
:102A80001C4089CB01452AC6EFF02F943245410105
:102A90006FD01FAAB707002083A74713E5D7B7A6B3
:102AA000002037A50020814793868631370F00200C
:102AB0001305451CD14837030020370E0020854EF2
:102AC00059A8DC46DC47CC4F9053985790C503A8D3
:102AD00007022322B8000328470093858701631368
:102AE000B80050C3104323A407027D1610C38C47BF
:102AF000D047D84B1388470090C54CC24C436393D2
:102B0000050150C3104323AA07007D1610C3130705
:102B10004F14D0570C4363F3C50010C3330716039B
:102B20002A974C4383AF85008CC723A6F70183AF58
:102B3000850023A20F0123A405010C43D8CB8505F2
:102B40000CC313078312184358576366E600130734
:102B50000E162320D70198422DF799C3EFF07F95E9
:102B6000B70700201387471504431384471591CCFA
:102B7000370900208549313B09C59307091623A071
:102B80003701FD14EDF823200400B707002083A7C8
:102B90000716E38907EEB7E700E0116723A0E720F7
:102BA0000545D5B519E5B7E700E0116723A0E72093
:102BB0008280EFD25F96B707002083A7C713411129
:102BC0009DC3A16793870780739007303756000035
:102BD000375500001306465A930590541305455483
:102BE000EF10C07401A02AC6EFF01FC9324581451D
:102BF000EFF07F8EA93511E5B7E700E0116723A05C
:102C0000E72041016FD07F93B707002003A7C713C8
:102C1000B70700209387071601C7054798C382802E
:102C2000EFD27F8F3704002023A007009307841280
:102C30009C4337A7A5A51307575A9C5B130484121E
:102C40009043631BE600D4436398C600984763151E
:102C5000D700DC476388E70008400C4093854503B4
:102C6000EFE09F85B70700201387471418431386AA
:102C70004714B7A700209387471C5148B3060703A2
:102C8000B385D700884105C5C841A106BE96484115
:102C9000C8C16314D5005441D4C1D146B306D7028C
:102CA000B697DC43DC471CC018C26FD01F8905E70C
:102CB000A1679387078073900730375600008565BA
:102CC000375500001306465A938525C01305455411
:102CD000EF10C06501A07D1755B7EFD2DF8305E582
:102CE000A16793870780739007303756000085658A
:102CF000375500001306465A9385C5C11305455440
:102D0000EF10C06201A0B70700202E8483A58712B0
:102D1000E105EFE07FF285452285EFF0CFFB6FD034
:102D2000DF81EFD24FFF2A8705E5A16793870780F0
:102D3000739007303756000085653755000013063D
:102D4000465A938525C513054554EF10205E01A012
:102D5000B70700209387871254432E858C4303A81E
:102D60008600D4CD8C4323A0050303A807008C461E
:102D7000610823A2050103A807009C43610823A45E
:102D8000060198D71C4385071CC311C27D55B28527
:102D9000EFF06FF46FD06FFA5C45DC4795E7EFD248
:102DA0008FF7A1679387078073900730375600002D
:102DB0008565375500001306465A938525C81305C7
:102DC0004554EF10A05601A0D04F945398579385C7
:102DD000870114C6D0C250436313B60054C31443D2
:102DE00023A40702FD1614C3370700200327C713C7
:102DF000D45725EF8C47D047D84B90C5D047484390
:102E00004CC2938547006313B50050C3104323AAF7
:102E100007007D1610C3370700201307471410431F
:102E20006373D60014C351473386E60237A70020E8
:102E30001307471C32975043084690C7C8C7084637
:102E40004CC10CC6D8CB1C43014585071CC3B70732
:102E5000002083A78712DC5763F8D700B70700204C
:102E6000054723A0E7160545828037A700201307F2
:102E7000873150430846D0CF88D308464CC10CC692
:102E800098D7D1B7B707002083A707151CC1B7078C
:102E9000002083A7C7155CC18280EFD2CFE7411124
:102EA00005E5A167938707807390073037560000C8
:102EB0008565375500001306465A9385D5CF13050F
:102EC0004554EF10A04601A085E5A16793870780D0
:102ED000739007303756000085653755000013069C
:102EE000465A9385E5CF13054554EF10204401A0C1
:102EF0002EC62AC4EFE01FCC37070020B7070020FA
:102F00001307871283A6C7151C432245B24583C702
:102F1000970599CB1C43A38C07040544EFE0FFCA37
:102F2000228541016FD06FE19C417D570144E387C9
:102F3000E7FE370600200326061503280500584142
:102F40006307C80063E5E60023A00500F9B73386F0
:102F5000E640E37BF6FE958FBA979CC12537014486
:102F600075BFB7070020054723A0E7168280B70783
:102F7000002083A78715054581CBB707002003A54F
:102F8000C713133515000605828011E501458280BF
:102F900001456FD08FDAEFD20FD8B707002083A793
:102FA00087122A846385A702A1679387078073909D
:102FB0000730375600008565375500001306465A1E
:102FC0009385F50413054554EF10403601A0BC4B22
:102FD00085E7A16793870780739007303756000015
:102FE0008565375500001306465A93850505130578
:102FF0004554EF10A03301A054557845FD173CC946
:10300000E388E6F8D1F7930445002685EFE0BFC5D5
:103010007C443D471D8F18CC370700201307471409
:1030200014435CD463F3F6001CC351473387E702B3
:10303000B7A700209387471C0545BA97D843144784
:1030400018C454C41447C4C204C798435CC80507D5
:1030500098C381B7EFD22FCC411105C5A1679387E3
:10306000078073900730375600008565375500009C
:103070001306465A9385652613054554EF10002B19
:1030800001A037040020AE8432C6EFE0BFB2930740
:1030900084129C4313048412FC4B85E31C4032468B
:1030A0000547238CE70411CA85453285EFF0AFC28E
:1030B000B7E700E0116723A0E720EFE01FB1EFE0E2
:1030C0007FAF1C40E84B09C51C4089CC23AA0704EC
:1030D0001C402AC6238C0704EFE03FAF3245410174
:1030E0006FD0AFC51307F5FFF8CBDDB7EFD2AFC296
:1030F000411105E5A1679387078073900730375624
:1031000000008565375500001306465A9385C54073
:1031100013054554EF10802101A085C5A167938751
:1031200007807390073037560000856537550000DB
:103130001306465A9385D54013054554EF10001FDA
:1031400001A02A8432C6EFE07FAC8947034784059B
:10315000230CF4047C4885077CC88547639EE70AF6
:103160001C54324685C7A167938707807390073048
:10317000375600008565375500001306465A93857B
:10318000354313054554EF10601A01A0B70700201E
:1031900083A7C7135854D1E70C4454445C4894C5E2
:1031A000544403A84700CCC2930544006313B800FD
:1031B000D4C39443232A0400FD1694C3B707002008
:1031C00093874714944363F3E60098C3D147B3064B
:1031D000F702B7A700209387471CB697D44303A8EC
:1031E000860014C42326040103A886002322B80005
:1031F0008CC65CC89443850694C3B707002083A798
:103200008712DC5763FAE70019C285471CC2B7076B
:103210000020054723A0E716EFE01FA041016FD073
:10322000CFB1B7A7002093878731D4438C4654CCC5
:103230000CD003A88600930584012322B8008CC615
:103240001CD44DBFEFD22FAD37040020EFE09F9686
:10325000130404171C40B1E737A5002013094535B6
:1032600013054535EFE0BF9B37A500209304853655
:1032700013058536EFE0BF9AB707002023A2271772
:103280000146B7070020C145294523A49716EFE062
:103290007FBD08C019C5B75500009385455EEFF0A6
:1032A000CF94EFE09F926FD04FA9EFD2CFA64CC141
:1032B00008C9AA876362B602184D158E0545637B5F
:1032C000E60093854700B707002003A58716EFE0C7
:1032D000BF9601456FD06FA66375D6000545E3FB29
:1032E000D5FE93854700B707002003A54716C5B74D
:1032F000EFD26FA22A84AE8432890C4CA6864A860D
:10330000A69522855D3719E16FD02FA31C4C22852D
:10331000BE941C508297D5B7EFD2EF9FB70700201D
:1033200083A747164111AA84DC472EC6C047130560
:103330004400EFE05F9383478402324613F747006F
:1033400011CBA68522856D371C50228582974101BD
:103350006FD0AF9EF99B2304F402FDB7EFD2AF9B71
:10336000370400209306441698421C4391EBB7079C
:10337000002093878716904398C390C26FD0EF9B2D
:103380005C47FD558843493FF1BFEFD24F96156921
:103390004111B70A0020B7090020370B0020B70BF6
:1033A00000201309095C83A74A16984329CBDC4700
:1033B000814C03AC0700EFF02FCCEFF0EFCC83A7EC
:1033C000C9162A849384C916130A0B17636CF50275
:1033D00088C0638F0C0283A78B16904313361600A8
:1033E00003250A00B3058C40EFF0EF86EFF02FE5E0
:1033F00011EDB7E700E0116723A0E72001A8854C95
:10340000014C55BFA13F80C0EFF06FE3214C05A0F8
:103410000146E36785FDEFF08FE2A2856285ED3D11
:10342000F5B79247B2458297824763DD07000325CF
:103430000A0001468A85EFE07FE535D582472245BF
:10344000E3C107FE22445C4895E3EFF0EFC39C40E4
:10345000AA8C6373F5001937824723A09401FD17E6
:10346000E367FCFC8A07CA979C43828713054400E4
:10347000EFE06FFFD9BF834784020C4C924693E77D
:1034800017002304F4026686B6952285393D45D19E
:103490008347840213F7470019CB1C4C924566867C
:1034A0002285BE95B1351C502285829749B7F99B7C
:1034B0002304F402CDBF83478402F99B2304F40262
:1034C000BDB783478402924593E717002304F402B3
:1034D0000CCC9DE1A1679387078073900730375626
:1034E0000000375500001306C65E9305903513059E
:1034F0004554EF00B06301A0E6866686E695228516
:10350000EFF0BFDA2DB78347840213F7270055F792
:103510002285EFE08FCF21BFEFC2FFFFEFF09FD2F8
:10352000B707002083A707179DE3A167938707804C
:103530007390073037560000375500001306C65EFB
:103540009305901113054554EF00505E01A0B70795
:103550000020B755000037350000938747173947DB
:10356000814613060010938545601305A538EFF0DA
:103570000F8645DD6FC07FFCB707002083A70708D3
:1035800037177A0013070720B3D7E7023707002061
:1035900093F7F70F230DF7161307803EB387E70263
:1035A00037070020231CF7168280EFC2DFF60111D7
:1035B0002A84854537050200EFD0DFCB85451145CC
:1035C000EFD07FC991477C82371501408D473EC4BB
:1035D0004C00E147130505803EC6EFD09F9C22C8F2
:1035E00037440040B70708000C08130504403ECCE0
:1035F00002CA231E0100EFD0DFC985451305044030
:10360000EFD01FD205616FC05FF3EFC23FEFB74449
:103610000040AE893289014493840440634524010B
:103620004A856FC0FFF0930500042685EFD0BFD513
:103630007DD9B38789008385070026850504C205E7
:10364000C181EFD0DFD3D9BF138701811C43B7C637
:1036500000209386868E3E95636BD500B7060120C9
:103660009386068063E5A60008C33E858280FD57E9
:10367000EDBFEFC25FEA5D711306000281450818D5
:1036800002C802CA02CCEFC01FEC8545154502CE28
:1036900002D002D202D402D6EFD0FFBB8545370557
:1036A0000002EFD03FBDB7140140E1473ECC0C080B
:1036B0008D47138504800564E0803ECAEFD07F8E7D
:1036C000930780040C081385048013040480E080B1
:1036D0003ECCEFD01F8D37640040930700030C18D9
:1036E0003ED81305044093075040231AF10202DC30
:1036F00002DE82C082C282C482C6EFD0CF9C8547E0
:10370000854468082304F10226D602CE02D002D2F4
:10371000EFD0EFA99307402228007C8426C623051A
:103720000100EFD0FF949307300228005C84EFD0B3
:103730003F941305044005468945EFD0AFCA0546BE
:10374000854513050440EFD0EFC961616FC0FFDE0E
:10375000EFC27FDC5D71130600028145081802C8C4
:1037600002CA02CCEFC03FDE8545214502CE02D021
:1037700002D202D402D6EFD01FAE8545370500062F
:10378000EFD05FAF8967FC8037140140E1473ECC42
:103790000C088D47130504C03ECAEFD09F80856793
:1037A000FC800C0893078004130504C03ECCEFD0C6
:1037B0004FFF37740040930700030C183ED81305E1
:1037C000048093075040231AF10202DC02DE82C01B
:1037D00082C282C482C6EFD00F8FB7070E003ED2DE
:1037E0008544854768082304F10226D602CE02D01C
:1037F000EFD0EF9B9307002528007C8426C6230585
:103800000100EFD0FF869307F00428005C84EFD01E
:103810003F861305048005468945EFD0AFBC0546B9
:10382000854513050480EFD0EFBB61616FC0FFD009
:10383000011122CE37640040854513050440EFD0C6
:103840008FBB15C5854513050440EFD0CFC7B7071B
:10385000002003A5870A7000814502C6EFF01F898A
:10386000B24791C7B7E700E0116723A0E720724491
:10387000056173002030797122D63764004026D468
:103880004AD24ED013040440B704002037E900E0C8
:10389000916989452285EFD00FB601E93254A254CF
:1038A0001259825945617300203089452285EFD035
:1038B0008FC1700081452285EFD00FAA03A5440A6D
:1038C000814630006C0002C4EFE0CFF9A247F1D38B
:1038D000232039217DBF011122CE37740040854558
:1038E00013050480EFD02FB115C58545130504805D
:1038F000EFD06FBDB707002003A5870B700081458F
:1039000002C6EFF0AFFEB24791C7B7E700E011671C
:1039100023A0E7207244056173002030797122D61C
:103920003774004026D44AD24ED013040480B70422
:10393000002037E900E0916989452285EFD0AFABDF
:1039400001E93254A2541259825945617300203062
:1039500089452285EFD02FB7700081452285EFD0B1
:10396000AF9F03A5440B814630006C0002C4EFE01A
:103970006FEFA247F1D3232039217DBFEFC2BFB93A
:103980005D711306C0028145481002C402C602C818
:1039900002CA02CC02CE02D002C002C2EFC0BFBA3D
:1039A000116585451105EFD01F8B85450545EFD085
:1039B000BF88930700207C84371401408D473EC6A2
:1039C0002C00E147130504803EC8EFD08FDD93073C
:1039D00000407C842C009147130504803EC8EFD042
:1039E0004FDCF167B7440140938707204C083ECA7B
:1039F00013850480B7070C003ECE02CC23100102D1
:103A0000EFD03F899307502305440A857C8022C26A
:103A100023010100EFD0CFE59307E0210A857C80E8
:103A200022C22301010037040240EFD06FE41305E6
:103A30004404EFD08FB2C1473ED6930700084C1024
:103A4000138944803EDC130544048967BEC44AD20E
:103A500002D402D802DA02DE82C082C282C6EFD06D
:103A60008FC613058405EFD04FAFB7A7002093870B
:103A7000275C3ED44C1093070010130584053ED8F4
:103A80004AD202D6EFD02FC4138504800546930591
:103A90004042EFD05F8A0546130544048945EFD0C4
:103AA0004FC7130584058545EFD06FC51305440442
:103AB0008545EFD0CFC40546138504809305000CDF
:103AC000EFD0DF8A854513850480EFD07F85616163
:103AD0006FC0BFA6EFC23FA45D711306C00281454F
:103AE000481002C402C602C802CA02CC02CE02D0EA
:103AF00002C002C2EFC03FA585451145EFD0AFF52A
:103B0000854537050200EFD0EFF685450545EFD036
:103B1000AFF291477C84371401408D473EC62C009C
:103B2000E147130504803EC8EFD0AFC7A1477C84AE
:103B30002C009147130504803EC8EFD08FC6F16773
:103B4000B7440040938707204C083ECA13850440C1
:103B5000B7070C003ECE02CC23100102EFD06FF36A
:103B60009307602305440A857C8022C2230101005B
:103B7000EFD00FD0930710220A857C8022C2230148
:103B8000010037040240EFD0AFCE13050408EFD098
:103B9000CF9CC1473ED6930700084C101389444080
:103BA0003EDC130504088967BEC44AD202D402D899
:103BB00002DA02DE82C082C282C6EFD0CFB0130525
:103BC000C406EFD08F99B7B700209387A7A03ED443
:103BD0004C10930700101305C4063ED84AD202D6F3
:103BE000EFD06FAE13850440054693054042EFD0F9
:103BF0008FF40546130504088945EFD08FB11305EE
:103C000004088545EFD0AFAF1305C4068545EFD056
:103C10000FAF0546138504409305000CEFD00FF558
:103C2000854513850440EFD0AFEF61616FC0FF9011
:103C3000EFC2DF8C5D711306C0028145481002C4DB
:103C400002C602C802CA02CC02CE02D002C002C220
:103C5000EFC07F8F85454145EFD0EFDF85453705C4
:103C60000800EFD02FE185450945EFD0EFDC930741
:103C700000407C840D44E1472C003715014022C6EA
:103C80003EC88564EFD0EFB1938704807C842C001C
:103C90009147371501403EC8EFD0AFB0C1492C0065
:103CA0003715014064844EC822C6EFD08FAF8565BA
:103CB00037150140EFD0EFBAF167B7540040938752
:103CC00007204C083ECA138504C0B7070C003ECE3F
:103CD00002CC23100102EFD0CFDB93074024054430
:103CE0000A857C8022C223010100EFD06FB89307C0
:103CF000C0240A857C8022C22301010037040240CF
:103D0000EFD00FB713058445EFD02F859307000838
:103D10004C10138944C03EDC130584458967BEC43A
:103D20004AD24ED602D402D802DA02DE82C082C261
:103D300082C6EFD04F9913050443EFD00F82B7B777
:103D400000209387A7293ED44C1093070010130539
:103D500004433ED84AD202D6EFD0EF96138504C072
:103D6000054693054042EFD00FDD05461305844517
:103D70008945EFD00F9A130584458545EFD02F98DC
:103D8000130504438545EFD08F970546138504C07E
:103D90009305000CEFD08FDD138504C08545EFD06F
:103DA0002FD8856537150140EFD0AFAB61616FC08B
:103DB0002FF82D71232E8110374401409305404286
:103DC0001305048002C2EFD0AFDC51C583570480D5
:103DD0008145C207C1833EC48357448037040240F3
:103DE00013058405C207C1833EC4A247EFD02F91BB
:103DF00013058405EFD04F939307F00F63E9A702F3
:103E000013040010098C42044180B7A500202286CB
:103E10009385255C68009521B707002003A5C70C92
:103E2000814650006C0023168110EFE0AFA33704E9
:103E300002409305001013058405EFD0AF8E854531
:103E400013058405EFD0AF8B924791C7B7E700E029
:103E5000116723A0E7200324C111156173002030EE
:103E60004111096502C6EFD08F920DC90965EFD0E7
:103E7000AF9237050240814513054504EFD02F88E6
:103E8000B707002003A5070D6C00EFE0EFAFB247C6
:103E900091C7B7E700E0116723A0E7204101730055
:103EA00020302D71232E811037440040930540426D
:103EB0001305044002C2EFD0AFCD51C58357044073
:103EC0008145C207C1833EC4835744403704024042
:103ED0001305C406C207C1833EC4A247EFD02F8298
:103EE0001305C406EFD04F849307F00F63E9A702D0
:103EF00013040010098C42044180B7B500202286CB
:103F00009385A5A06800952EB707002003A5870D0F
:103F1000814650006C0023168110EFE0AF94370407
:103F20000240930500101305C406EFC0BFFF85458E
:103F30001305C406EFC0BFFC924791C7B7E700E086
:103F4000116723A0E7200324C111156173002030FD
:103F500041113705000202C6EFD06F8315C937053E
:103F60000002EFD06F833705024081451305050835
:103F7000EFC0FFF8B707002003A5C70D6C00EFE006
:103F8000AFA0B24791C7B7E700E0116723A0E720D1
:103F90004101730020302D71232E811037540040D1
:103FA000930540421305048002C2EFD06FBE51C595
:103FB000835704808145C207C1833EC48357448030
:103FC000370402401305C406C207C1833EC4A2479A
:103FD000EFC0FFF213050403EFC01FF59307F00FC6
:103FE00063E9A70213040010098C42044180B7B5AD
:103FF00000202286938525E568004124B70700202C
:1040000003A5470E814650006C0023168110EFE097
:104010006F85370402409305001013050403EFC0B9
:104020007FF0854513050403EFC07FED924791C7EC
:10403000B7E700E0116723A0E7200324C111156151
:104040007300203041111305000202C6EFC03FF497
:104050000DC913050002EFC03FF43705024081454A
:104060007105EFC0DFE9B707002003A5870E6C00DC
:10407000EFE08F91B24791C7B7E700E0116723A047
:10408000E7204101730020302D71232E8110375419
:10409000004093054042130504C002C2EFD04FAF69
:1040A00051C5835704C08145C207C1833EC48357AD
:1040B00044C03704024013050443C207C1833EC411
:1040C000A247EFC0DFE313050443EFC0FFE593070A
:1040D000F00F63E9A70213040010098C4204418029
:1040E000B7B5002022869385A52968007922B707F5
:1040F000002003A5070F814650006C002316811095
:10410000EFD05FF637040240930500101305044317
:10411000EFC05FE1854513050443EFC05FDE9247C2
:1041200091C7B7E700E0116723A0E7200324C1117E
:1041300015617300203041113705021002C6EFC02F
:104140001FE51DCD37050210EFC01FE53705024002
:10415000814513058545EFC09FDA85653715014018
:10416000EFC03FF0B707002003A5470F6C00EFE05A
:10417000AF81B24791C7B7E700E0116723A0E720FE
:104180004101730020302D71232E8110372400400F
:10419000930540421305048002C2EFD06F9F51C5C2
:1041A000835704808145C207C1833EC4835744803E
:1041B0003704024013050448C207C1833EC4A24726
:1041C000EFC0FFD313050448EFC01FD69307F00FCD
:1041D00063E9A70213040010098C42044180B7B5BB
:1041E000002022869385256E68004128B7070020AD
:1041F00003A5C70F814650006C0023168110EFD035
:104200007FE6370402409305001013050448EFC011
:104210007FD1854513050448EFC07FCE924791C7F3
:10422000B7E700E0116723A0E7200324C11115615F
:104230007300203041113705201002C6EFC03FD572
:1042400015C937052010EFC03FD53705024081451D
:104250001305C546EFC0BFCAB707002003A5071066
:104260006C00EFD07FF2B24791C7B7E700E011676B
:1042700023A0E720410173002030B3C7A5008D8B38
:104280003307C50081E78D4763EDC700AA87637ECA
:10429000E508942185078505A38FD7FEE3EBE7FEAC
:1042A000828093763500AA8789CA9421850785057F
:1042B000A38FD7FE93F63700C5BF9376C7FF13864B
:1042C00006FE63F0C70683A3050083A2450083AF03
:1042D000850003AFC50083AE050103AE450103A30E
:1042E000850183A8C5019385450223A0770003A813
:1042F000C5FF23A2570023A4F70123A6E70123A8A3
:10430000D70123AAC70123AC670023AE1701938707
:10431000470223AE07FF75B790419107910523AE81
:10432000C7FEE3EBD7FEE3E6E7F6828039713EDABB
:104330002ED232D436D63AD842DC46DE938741813B
:1043400022CC804326CA06CEAA8409C41C4C99E319
:10435000228539290C4454102686228536C6EF0062
:104360009006F2406244D24421618280011122CC45
:1043700026CA4AC806CE4EC6AA842E89328401C5F2
:104380001C4D91E3F526971700009387672A631762
:10439000F406C0401C4C1CC45E24A18BC1C31C4845
:1043A000B5CF1C4808409379F90F1379F90F1D8D8B
:1043B0005C486346F500A2852685692C25E51C44EA
:1043C0000505FD171CC41C401387170018C0238067
:1043D00037015C486388A7005E24858B81CBA947A1
:1043E0006316F900A2852685B5240DEDF2406244DE
:1043F0004A85D2444249B24905618280971700003C
:10440000938707256314F400804469B79717000069
:1044100093870720E310F4F8C044ADBFA28526853A
:10442000212041D17D59D9B741119387418126C2BD
:10443000844322C44AC006C62A892E8489C49C4C5F
:1044400099E326853526971700009387671E631B1F
:10445000F402C0400317C40093170701C18393F609
:104460008700ADEA93F6070195EEA5472320F900F2
:10447000136707045AA47D55B2402244924402496E
:1044800041018280971700009387871C6314F40012
:104490008044C9B79717000093878717E31CF4FA85
:1044A000C0444DBF918B9DC34C5889C993074404A8
:1044B0006384F5004A85292B232A04025E242322E3
:1044C000040093F7B7FD5EA41C481CC05E2493E76C
:1044D00087005EA41C4899EB5E241307002093F725
:1044E00007286385E700A2854A8591295E2413F792
:1044F00017001DC35C4823240400B307F0401CCC04
:104500001C480145B5FB8317C40013F707082DD7D6
:1045100093E707045EA485B7898B014791E3584868
:1045200018C4F9BFDE25011122CC26CA06CE4AC81E
:104530004EC613F78700AA842E8479EBD841634DC9
:10454000E000B841634AE0000145F2406244D244D1
:104550004249B2490561828058547DD703A90400BD
:104560009396370123A0040063DB060670485E249F
:10457000918B99C75C401D8E5C5899C33C401D8E41
:104580005C540C50814626858297FD575A24631D42
:10459000F5009440F54763E8D706B7074020850744
:1045A000B3D7D700858BA5C31C48232204001CC0A9
:1045B0009317370163D80700FD576314F5009C403B
:1045C00091E368C84C5823A02401BDDD930744043F
:1045D0006384F5002685ED2E232A0402B5B70C501E
:1045E0000146854626850297FD572A86E311F5F890
:1045F0009C40B5DF75476385E70059476393E7043F
:1046000023A0240191B7136707045AA47D5535BF31
:1046100083A90501E38A09F203A905008D8B23A074
:10462000350133093941014791E3D84918C4E35DA5
:1046300020F11C540C50CA864E862685829763470B
:10464000A0005E2493E707045EA4C9B7AA993309C2
:10465000A940F1BF9C49A5C3011122CC06CE2A84F2
:1046600011C51C4D81E72EC62122B24597170000C7
:10467000938707FC639CF5004C408397C5009DC75A
:1046800022856244F24005616FF0DFE99717000070
:10469000938707FC6394F5000C44C5B79717000097
:1046A000938707F7E39BF5FC4C44C1BFF24062449B
:1046B00001450561828001458280411122C406C600
:1046C0002A844EA572A52320050023220500232459
:1046D00005002322050623280500232A0500232C94
:1046E0000500214681451305C505EFB0DFE59717A5
:1046F0000000938707B45CD097170000938727B614
:104700001CD497170000938707BA5CD49717000052
:10471000938767BC00D01CD8B240224441018280FC
:1047200097050000938545F391AA411126C213060F
:1047300080069384F5FFB384C4024AC02E8922C444
:1047400006C6938544072D2E2A8401CD232005001B
:1047500023222501310508C4138684068145EFB064
:104760009FDE2285B2402244924402494101828068
:104770001C4DA5E7411106C622C497070000938788
:1047800067FA1CD59387C1819C4323240504232603
:104790000504232805046314F50085471CCD2A84ED
:1047A000352848C022851D2808C42285052848C40C
:1047B000484001469145EFF05FF008440546A545A5
:1047C000EFF0BFEF48440946C945EFF01FEF8547BA
:1047D0001CCCB240224441018280828041119387E7
:1047E000C18126C284434AC006C69C4C22C42A8981
:1047F00081E72685EFF0DFF7938484048044DC4072
:10480000FD1763D607009C40B9CF8440C5BF03178E
:10481000C40039E7C177850723220406232004005A
:1048200023220400232404005CC423280400232A38
:104830000400232C0400214681451305C405EFB074
:104840009FD0232A0402232C0402232404042326B9
:1048500004042285B24022449244024941018280EC
:104860001304840671BF91454A85EFF01FEC88C0A0
:1048700049FDB1472320F9000144E1BF797122D4F9
:104880004AD052CC56CA5AC85EC606D626D24ECE9A
:104890002A8AAE8A130485040149054BFD5B09ECA5
:1048A000B25022544A8592540259F249624AD24A7D
:1048B000424BB24B45618280044483294400FD1978
:1048C00063D409000040E1BFDE24637BFB008397D3
:1048D000E40063877701A6855285829A3369A9002F
:1048E00093848406E9BF1971A6DAAE848395E50046
:1048F000A2DC86DE328463DB0500DE2423A0060012
:1049000093F7070885E7930700401DA0300836C6D7
:10491000EF00F022B246E34205FE7247BD67F98F11
:104920007977BA9793B717009CC2F1BF9307000439
:104930001CC0F6506654D654014509618280DE25BC
:10494000011122CC06CE26CA4AC8898B2E8489CF73
:10495000930774041CC01CC885475CC8F2406244BD
:10496000D24442490561828074003000AA84EFF08D
:104970009FF7A2452A892685212219E98317C400B9
:1049800013F7072061FFF19B93E727005EA4C9B7E7
:1049900097070000938707D99CD45E2408C008C8F5
:1049A00093E707085EA4A2475CC8B24781CF83158E
:1049B000E4002685EF00D01B11C55E24F19B93E730
:1049C00017005EA45E243369F9002316240179B729
:1049D000DDC583A7C5FF411122C406C626C21384C4
:1049E000C5FF63D307003E94AA84EF00302097B739
:1049F000FF1F9387E7789C4391EF2322040097B72A
:104A0000FF1F23AF87762244B2402685924441019E
:104A10006F00F01D637EF40014403307D4006396EA
:104A2000E7009843DC43369718C05CC0C9BFBA871B
:104A3000D84319C3E37DE4FE94433386D700631F54
:104A400086001040B29694C33386D700E31DC7FAA0
:104A500010435843B29694C3D8C375B76375C40066
:104A6000B1479CC04DB71040B306C4006316D700D1
:104A700014435843B29614C058C0C0C369B782806B
:104A8000011126CA93843500F19806CE22CC4AC87B
:104A90004EC6A104B14763F5F404B14463E4B40421
:104AA0002A89EF00B01497B7FF1F9387676D98436B
:104AB0003A8439E0938701909C4391E781454A8588
:104AC000352F23A0A190A6854A850D2FFD59631B84
:104AD0003507B1472320F9004A85EF00501129A07E
:104AE000E3DE04FAB1471CC10145F2406244D244FE
:104AF0004249B249056182801C40858F63C1070429
:104B0000AD4663F6F6001CC03E9404C001A85C40AC
:104B10006315870217B7FF1F2324F7664A85EF0046
:104B2000100D1305B4009307440061993307F54055
:104B30004DDF3A94898F1CC04DBF5CC3C5B7228737
:104B4000404085BF130435007198E30085FCB30530
:104B5000A4404A856525E31A35FBA5BF1C46FD1711
:104B60001CC663DA0700184E63C5E700A9476394C3
:104B7000F5006FF0AFFF1C422E851387170018C297
:104B80008CA38280011122CC26CA4AC84EC652C4C8
:104B900006CE2A89AE893284B304D6007D5A6314C6
:104BA0009400014509A80C204E864A85EFF01FFBB2
:104BB0000504E31645FFF2406244D2444249B2493B
:104BC000224A05618280357122CD26CB4AC94EC763
:104BD00006CF52C556C35AC1DEDEE2DCE6DAAA8948
:104BE000AE843289368409C51C4D99E3EFF05FB875
:104BF000971700009387C7A36398F40C83A4490018
:104C0000DE24A18BE5C79C48F5C393070002A304EB
:104C1000F1029307000302D22305F10222C6930B8F
:104C20005002971A0000938AAAA4054C294B4A8483
:104C30001C2099C3639F770DB30C2441638E0C0035
:104C4000E6864A86A6854E85EFF0DFF3FD57630FB3
:104C5000F51C9256E69636D21C206389071CFD5738
:104C60001309140002C802CE3ECA02CCA3090104F3
:104C700082D48345090015465685A92F13041900CF
:104C8000C24751E913F7070109C713070002A30937
:104C9000E10413F7870009C71307B002A309E10471
:104CA000834609001307A002638FE606F2474A8491
:104CB00081462546182093051400130707FD6377E6
:104CC000E60AB5CA3ECE85A8971700009387479895
:104CD0006395F40083A4890025B797170000938794
:104CE0002793E39FF4F083A4C90019BFA6854E85DE
:104CF000EFF08FF319D97D55FA406A44DA444A49F6
:104D0000BA492A4A9A4A0A4BF65B665CD65C0D6140
:104D10008280050431BF330555413315AC00C98F7E
:104D20003EC82289B9B7324793064700184336C6B2
:104D3000634707023ACE18209307E002631DF70489
:104D400018309307A002631BF702B24709041387C8
:104D500047009C433AC663C107023ECA2DA83307E9
:104D6000E04093E727003ACE3EC8F1B7B387670328
:104D700085462E84BA973DBFFD57C5B7050402CAC4
:104D8000814681472546182093051400130707FD27
:104D90006374E606F9F20C200D46171500001305A2
:104DA000A58D0D2D11CD971700009387E78C1D8DD4
:104DB00093070004B397A700424505045D8D2AC8F8
:104DC0000C201946171500001305458B1309140014
:104DD0002304B102012535C197B7FFFF93878722CE
:104DE00095E74247B2471377071009CF91073EC6B0
:104DF0009257D2973ED225BDB387670385462E844E
:104E0000BA9751B79D07E19BA107D5B778009706E0
:104E10000000938666D726860C084E859700000012
:104E2000E7000000FD572A8AE314F5FCDE2493F71F
:104E30000704E39207EC1255C1B57800970600000D
:104E4000938686D426860C084E85012AE1BF7971A7
:104E500056CA9C49BA8A984522D426D24ECE52CC04
:104E600006D64AD05AC85EC6AA892E84B284368A2B
:104E700063D3E700BA879CC00347340419C385078E
:104E80009CC01C4093F7070281C79C4089079CC0C7
:104E90000329040013796900631A0900130B9401B4
:104EA000FD5B5C449840998F634CF9041C40834639
:104EB000340493F70702B336D000A5EB130634048D
:104EC000D2854E85829AFD576303F5041C40114636
:104ED0009840998B544481446397C700B384E6405B
:104EE00063D3040081441C4418486354F700998F2D
:104EF000BE94014969047D5B63982405014509A8B6
:104F000085465A86D2854E85829A631E75017D55E7
:104F1000B250225492540259F249624AD24A424B48
:104F2000B24B456182800509ADBF3307D40013063B
:104F30000003A301C7040347540493871600A297F4
:104F40008906A381E7049DBF85462286D2854E85CA
:104F5000829AE30E65FB050945B7797122D426D202
:104F60004AD04ECE06D652CC56CA5AC8B689942DCF
:104F7000930790063289AA842E8413863504638DA4
:104F8000F60263E2D706930780056386F61863EDA1
:104F9000D700638E062093073004638EF60A930AC7
:104FA00024042301D404C9A0930730066385F60ABC
:104FB00093074006E395F6FE1C40084393F6070866
:104FC00093054500C5C61C410CC363D807001307F1
:104FD000D002B307F040A301E404970600009386D3
:104FE000666A294765A8930700076382F61663E59A
:104FF000D7029307E0066389F6189307F006E3905B
:10500000F6FA0C401C4313F80508138547006307A4
:10501000080608C39C4385A893075007E383F6FE60
:10502000930780076389F61293073007E399F6F632
:105030001C43D04181459386470014C383AA0700CF
:105040005685492E01C53305554148C05C401CC8F2
:10505000A301040461A81C43930A24049386470017
:105060009C4314C32301F4048547D5B793F6070482
:105070001C410CC3B9DAC207C18781BF93F505048F
:1050800008C3C9D99E231307F0066387E60E970667
:1050900000009386265F2947A30104044C400CC4FA
:1050A00063C5050008406D9908C099E3B28A89CDAF
:1050B000B28AB3F5E702FD1AB6958C212380BA00B7
:1050C000B3D5E70263F0E70CA147631EF7001C406D
:1050D000858B91CB58401C4863C7E70093070003BA
:1050E000A38FFAFEFD1A3306564110C84E87CA86B2
:1050F0007000A2852685EFF09FD57D5A631D450B74
:105100007D55B250225492540259F249624AD24A11
:10511000424B45618280A382D504970600009386A6
:1051200066560C40084313F805081C411105630D31
:10513000080208C313F7150001C793E505020CC068
:105140004147B9FB0C4093F5F5FD0CC0B1B79C414C
:1051500093E707029CC193078007A302F404970614
:1051600000009386665375BF13F8050408C3E30374
:1051700008FCC207C1837DBF970600009386865056
:10518000214719BFAE8735B794411C43CC4913F86A
:105190000608138547006306080008C39C438CC3B8
:1051A00039A008C393F606049C43F5DA8EA323289E
:1051B0000400B28A25BF14485686CA85268582997E
:1051C000E30045F51C40898B8DE7B2474844E35A1C
:1051D000F5F23E853DB785465686CA852685829975
:1051E000E30065F3050A5C443247998FE345FAFE14
:1051F000E9BF014A930A94017D5BF5B7411122C4CE
:105200002A842E859767002023A0076E06C6EFE04C
:10521000AFC3FD576319F500976700209387C76CEC
:105220009C4391C31CC0B240224441018280411181
:1052300022C42E848395E50006C65D2A63490500D5
:105240007C48AA977CC8B2402244410182805E24F7
:105250007D777D17F98F5EA4FDB7DE25011122CC85
:1052600026CA4AC84EC606CE93F70710AA842E84D3
:105270003289B68991C78395E500894601460D229A
:105280005E247D777D17F98F5EA48315E400624468
:10529000F240CE864A86B24942492685D24405610B
:1052A00025A8411122C42E848395E50006C6CD2889
:1052B000FD575A24631AF500FD77FD17F98F5EA498
:1052C000B2402244410182808567D98F5EA468C8BC
:1052D000C5BF8395E50025A8411122C42A842E85E7
:1052E000B28536869767002023A0076006C6EFE0E8
:1052F000CFB1FD576319F500976700209387C75E0C
:105300009C4391C31CC0B2402244410182804111A0
:1053100022C42A842E859767002023A7075C06C62F
:105320001122FD576319F500976700209387C75B2B
:105330009C4391C31CC0B240224441018280411170
:1053400022C42A842E85B2859767002023AE075891
:1053500006C6CD20FD576319F50097670020938797
:10536000A7589C4391C31CC0B24022444101828093
:10537000411122C42A842E859767002023A6075650
:1053800006C6C920FD576319F5009767002093876B
:10539000A7559C4391C31CC0B24022444101828066
:1053A000411122C42A842E85B28536869767002053
:1053B00023AC075206C67928FD576319F500976795
:1053C0000020938767529C4391C31CC0B240224483
:1053D0004101828093F5F50F2A966314C5000145BB
:1053E00082801C21E38EB7FE0505C5BF82808280C6
:1053F000411122C42A842E85B28536869767002003
:1054000023A4074E06C6B928FD576319F500976710
:1054100000209387674D9C4391C31CC0B240224437
:10542000410182809307800517670020232EF74AE9
:105430007D55828093078005176700202326F74A51
:105440007D5582809307800517670020232EF7483B
:105450000145828093078005176700202326F748BF
:105460007D5582809307800517670020232EF7461D
:105470007D55828043414E315F53656E645F546158
:10548000736B00004D6F746F725F43414E315F5319
:10549000656E645F5461736B0000000043414E32DF
:1054A0005F53656E645F5461736B000043414E321D
:1054B0005F526563765F5461736B000054455354CB
:1054C0005F43414E325F54785F5461736B0000005C
:1054D000537461636B206F766572666C6F772069B9
:1054E0006E207461736B3A2025730A005265636500
:1054F000697665642043414E2049443A2025582C62
:1055000020446174613A202558202558202E2E2EE3
:105510000A00000068656C6C6F0D0A002E2E2F4685
:1055200072656552544F532F706F727461626C656F
:105530002F4D656D4D616E672F686561705F342E0C
:1055400063000000657272206174206C696E6520D2
:105550002564206F662066696C6520222573222EE3
:10556000200D0A20000000002E2E2F467265655285
:10557000544F532F706F727461626C652F474343B1
:105580002F524953432D562F706F72742E630000B3
:105590002E2E2F4672656552544F532F71756575C7
:1055A000652E63002E2E2F4672656552544F532F81
:1055B0007461736B732E630049444C450000000016
:1055C0007634000076340000B6340000C2340000A7
:1055D000063500007634000076340000B634000052
:1055E000C2340000546D7251000000002E2E2F4670
:1055F00072656552544F532F74696D6572732E63D3
:1056000000000000546D722053766300000000001B
:10561000000000000000000000000000000000008A
:10562000000000000000000000000000000000007A
:10563000000000000000000000000000000000006A
:10564000000000000000000000000000000000005A
:10565000000000000000000000000000000000004A
:10566000000000000000000000000000232D302B8F
:1056700020000000686C4C006566674546470000E6
:105680003031323334353637383941424344454678
:10569000000000003031323334353637383961623A
:0856A000636465660000000070
:1056A80000000000000000000102030406070809CA
:1056B80000000000010203040102030406070809B0
:1056C800000000002C5600004C5600000C5600004C
:1056D80000000000000000000000000000000000C2
:1056E80000000000000000000000000000000000B2
:1056F80000000000000000000000000000000000A2
:105708000000000000000000000000000000000091
:105718000000000000000000000000000000000081
:105728000044950802040608AAAAAAAA0E000000C6
:10573800E8B8002020000020000001202000002000
:00000001FF
